:020000040800F2
:1000000000000120AD0A0008FD0A0008FD0A0008F2
:10001000FD0A0008FD0A0008FD0A000800000000B3
:10002000000000000000000000000000FD0A0008C1
:10003000FD0A000800000000FD0A0008D9060008BB
:10004000FD0A0008FD0A0008FD0A0008FD0A000874
:10005000FD0A0008FD0A0008FD0A0008FD0A000864
:10006000FD0A0008FD0A0008FD0A0008FD0A000854
:10007000FD0A0008FD0A0008FD0A0008FD0A000844
:10008000FD0A0008FD0A0008FD0A00080000000043
:10009000000000000000000000000000FD0A000851
:1000A000FD0A0008FD0A0008FD0A0008FD0A000814
:1000B000FD0A0008FD0A0008FD0A0008FD0A000804
:1000C000FD0A0008FD0A0008FD0A0008FD0A0008F4
:1000D000FD0A0008FD0A0008FD0A000800000000F3
:1000E000FD0A0008FD0A0008FD0A000800000000E3
:1000F000000000000000000000000000FD0A0008F1
:1001000000000000FD0A0008FD0A0008FD0A0008C2
:1001100000000000000000000000000000000000DF
:10012000FD0A0008FD0A0008FD0A0008FD0A000893
:10013000FD0A0008000000000000000000000000B0
:10014000000000000000000000000000FD0A0008A0
:10015000FD0A0008FD0A0008FD0A0008FD0A000863
:10016000FD0A0008FD0A0008000000000000000071
:10017000000000000000000000000000000000007F
:1001800000000000FD0A0008000000000000000060
:04019000FD0A00085C
:1001A00080B400AF124B1B68114A43F00103136087
:1001B0000F4B00229A600E4B1B680D4A23F084738C
:1001C00023F4803313600A4B0A4A5A60084B1B68B9
:1001D000074A23F480231360054B0022DA60064BA4
:1001E0004FF000629A6000BFBD4680BC704700BF00
:1001F000003802401030002400ED00E080B487B0E9
:1002000000AF00233B6100237B610223FB600023DE
:10021000BB6002237B60344B9B6803F00C033B61A3
:100220003B69082B11D03B69082B44D83B69002B54
:1002300003D03B69042B04D03DE02C4B2C4A1A60C0
:100240003DE02A4B2B4A1A6039E0274B5B689B0D37
:1002500003F00103BB60244B5B6803F03F037B604A
:10026000BB68002B0CD0234A7B68B2FBF3F31E4A19
:1002700052689209C2F3080202FB03F37B610BE0B0
:100280001B4A7B68B2FBF3F3174A52689209C2F328
:10029000080202FB03F37B61134B5B681B0C03F04A
:1002A000030301335B00FB607A69FB68B2FBF3F385
:1002B0000E4A136003E00D4B0D4A1A6000BF0A4B53
:1002C0009B681B0903F00F030B4AD35C3B61074B90
:1002D0001A683B6922FA03F3044A136000BF1C3713
:1002E000BD4680BC704700BF0038024000000020BF
:1002F0000024F40040787D016C0D0008000000002F
:1003000002780B78012A28BF9A4240F0D8806DE924
:10031000044540EA0104CDE902676FF0000C4FEAA2
:1003200044721AB380EA010414F0070F6BD100F095
:10033000070420F0070004F0030521F007014FEA4D
:10034000C505F0E8042314F0040FF1E804670CFA83
:1003500005F462EA040266EA04060BD063EA0403C9
:10036000624667EA0407664604E000BFF0E804233B
:10037000F1E8046782FA4CF582EA0604A4FA8CF4E8
:100380006CBB83FA4CF583EA0705A5FA8CF595B9A1
:1003900050E9022351E9026782FA4CF582EA060429
:1003A000A4FA8CF483FA4CF583EA0705A5FA8CF5D8
:1003B0002543DBD09CB92DBAB5FA85F424F00704A7
:1003C00027FA04F1DDE9026723FA04F303F0FF00E2
:1003D00001F0FF01FDE80445A0EB0100704724BADD
:1003E000B4FA84F424F0070426FA04F1DDE9026784
:1003F00022FA04F202F0FF0001F0FF01FDE80445DB
:10040000A0EB0100704714F0030F3CD110F003047F
:1004100028D150F8082B51F8083B82FA4CF582EAB3
:100420000305A5FA8CF55DB950F8042C51F8043C8D
:1004300082FA4CF582EA0305A5FA8CF5002DE8D086
:100440002DBAB5FA85F424F0070423FA04F122FA50
:1004500004F202F0FF0001F0FF01FDE80445A0EB0B
:10046000010070474FEAC40420F0030050F8082B45
:1004700021F0030151F8083B0CFA04F462EA04028B
:1004800063EA0403C9E710F003041DD0A1EB0401E3
:1004900020F00300E40750F8042B06D012D28B782A
:1004A0005FFAA2F4E41A06D12BB1CB785FFAB2F46A
:1004B000E41A00D133B920465DF8104B7047A2EB27
:1004C0000300704701F1040150F8042BCC0721F020
:1004D000030151F8043B48D824D222F07F4482FA29
:1004E0004CF594EA1325A5FA8CF50AD165B951F8B3
:1004F000043B84EA0204B4EB036F0ED150F8042BE2
:10050000EBE74FEA132355E035F07F454DD10878EE
:10051000FDE80445C0F1000070474FEA126203F0A5
:10052000FF0347E002EA1C4482FA4CF594EA1345C3
:10053000A5FA8CF50AD165B951F8043B84EA0204A6
:10054000B4EB034F0CD150F8042BEBE74FEA134305
:1005500030E015EA1C4528D10B884FEA124229E009
:100560004FEA124203EA1C4324E002F0FF0482FA3D
:100570004CF594EA1365A5FA8CF50AD165B951F8E2
:10058000043B84EA0204B4EB032F09D150F8042B96
:10059000EBE74FEA13630DE015F0FF0F05D10B6891
:1005A0004FEA122223F07F4304E04FF00000FDE801
:1005B0000445704712BA1BBA82FA4CF482EA03046B
:1005C000A4FA8CF5B5FA85F402FA04F203FA04F3FE
:1005D0004FEA1260FDE80445A0EB1360704700BFCE
:1005E0000348044B834202D0034B03B118477047C2
:1005F0000C0200200C020020000000000548064B01
:100600001B1AD90F01EBA301491002D0034B03B110
:10061000184770470C0200200C0200200000000068
:1006200010B5064C237843B9FFF7DAFF044B13B13A
:100630000448AFF300800123237010BD0C0200209A
:10064000000000000C0D000808B5054B1BB1054962
:100650000548AFF30080BDE80840FFF7CFBF00BFFB
:1006600000000000100200200C0D000880B500AF53
:10067000FFF7C4FD084B1B68084AA2FB03239B0934
:10068000074A013B5360064B00229A60044B072245
:100690001A6000BF80BD00BF00000020D34D621073
:1006A00010E000E080B400AF094BDB68084A43F07B
:1006B0008073D360074B00225A60064B1B68054AC3
:1006C00043F00103136000BFBD4680BC704700BF0C
:1006D000F0ED00E0001000E080B400AF044B1B68B8
:1006E0000133034A136000BFBD4680BC704700BFA2
:1006F0002802002080B400AF0D4B1B6B0C4A43F066
:10070000010313630A4B1B6B094A43F00203136393
:10071000074B1B6B064A43F004031363054B1B682E
:10072000044A43F08063136000BFBD4680BC70473D
:10073000003802400008024080B584B000AF00F0ED
:1007400061F9FFF793FFFFF7ADFF4FF4165000F08C
:1007500027F8FFF7CFFF104B5B690F4A23F40053D4
:1007600053613B1D00221A605A609A6000F09CF8A9
:1007700000F0CEF8094B1A687B68D31AB3F57A7F7C
:10078000F4D3054B5B69044A83F400535361034B74
:100790001B687B60EAE700BF0008024028020020D7
:1007A00080B485B000AF0346FB80304B1B6B2F4AF3
:1007B00043F0010313632D4B5B6C2C4A43F0100391
:1007C00053642B4B1B682A4A23F440231360284BA5
:1007D0001B68274A43F400231360254B1B68244AF7
:1007E00023F440131360224B1B68214A43F4001387
:1007F00013601F4B5B681E4A23F4C06353601C4B9D
:100800009B681B4A43F420139360194B5B6A184A98
:1008100023F47F635362164B5B6A154A43F4EE631D
:100820005362144B0022DA60124B00221A61114B02
:1008300000225A61FB88DB08FB81FB895B089BB2C5
:100840001A460D4B1344FA890A49B3FBF2F38B6045
:10085000084BDB68074A43F4005343F00C03D360B2
:1008600000BF1437BD4680BC704700BF003802404F
:10087000000002400010014000BD010580B483B0BB
:1008800000AF0346FB7100BF064B1B6803F08003FB
:10089000002BF9D0034AFB79536000BF0C37BD46EB
:1008A00080BC70470010014080B400AF0A4B1B6849
:1008B00003F02003002B08D0074B5B68DAB2074B2C
:1008C0001A70074B01221A7002E0054B00221A70C1
:1008D00000BFBD4680BC70470010014030020020C0
:1008E0002C02002080B582B000AF786006E07B6803
:1008F0005A1C7A601B781846FFF7C0FF7B681B788C
:10090000002BF4D100BF00BF0837BD4680BD0000FA
:1009100080B582B000AF2E4B1B78DBB2002B52D0DB
:1009200005222C492C4800F0EBF80346002B05D19A
:100930002848FFF7D7FF264B00221A7004222749C8
:10094000254800F0DDF80346002B05D12348FFF7CA
:10095000C9FF1F4B00221A70032221491E4800F0D4
:10096000CFF80346002B22D11E491B4800F004F9A2
:1009700078601D49002000F0FFF838601B49386896
:10098000FFF7BEFC0346002B03D01948FFF7AAFF70
:1009900009E018493868FFF7B3FC0346002B02D082
:1009A0001548FFF79FFF0A4B00221A7008E0134812
:1009B000FFF798FF0848FFF795FF1148FFF792FFF0
:1009C000034B00221A7000BF0837BD4680BD00BF30
:1009D0002C020020240D0008300200202C0D0008FD
:1009E000340D0008380D00083C0D0008400D0008CB
:1009F000440D0008500D0008540D0008600D00085B
:100A0000680D000880B500AF254B1B68244A43F4ED
:100A10008033136000BF224B1B6803F40033002BAC
:100A2000F9D01F4B1F4A5A601D4B1B681C4A43F0EC
:100A30008073136000BF1A4B1B6803F00073002B18
:100A4000F9D0194B1B68184A43F4C06343F0020302
:100A50001360134B124A9B689360114B9B68104ABA
:100A600043F4A05393600E4B9B680D4A43F400433C
:100A700093600B4B9B680A4A23F003039360084B77
:100A80009B68074A43F00203936000BF044B9B68D6
:100A900003F00C03082BF9D1FFF7B0FB00BF80BDBA
:100AA0000038024019544107003C0240DFF834D0BE
:100AB000FFF776FB0C480D490D4A002302E0D4589D
:100AC000C4500433C4188C42F9D30A4A0A4C002398
:100AD00001E013600432A242FBD300F087F8FFF775
:100AE0002BFE704700000120000000200C020020B7
:100AF000980D00080C02002014050020FEE70000FD
:100B00008AB330B540EA0104A40786460B4617D1E4
:100B1000032A07D814E0043A23D01CF0803F20D1E8
:100B2000032A26D9DEF80040194653F8045BA4F1E5
:100B3000013CAC4270462CEA040C0EF1040EEAD0E3
:100B400003780C78013AA34208BF121807D00CE0D2
:100B50006BB110F8013F11F8014FA34205D190424B
:100B6000F6D1002030BD10467047181B30BD184626
:100B700030BD70461946E3E7024A1268012350323D
:100B800000F002B80400002018B370B586468C4609
:100B90001EF8015B01E0A54214D01CF8014B002CAB
:100BA000F9D1DDB176460C4616F8015B00E063B181
:100BB00014F8013B9D42FAD14DB100238EF800306C
:100BC000166070BD6BB17046E0E7B646EAE72E46A8
:100BD000F6E710680028D8D1002070471560002083
:100BE00070BDC2F800E0037070BD00BF70B50F4B60
:100BF0000F4DAB42A3EB050607D0B610002455F805
:100C0000043B01349847A642F9D800F07FF8094D1B
:100C1000094B5E1BAB424FEAA60606D0002455F8EE
:100C2000043B01349847A642F9D870BD8C0D0008EA
:100C30008C0D00088C0D0008940D0008704700BF53
:100C4000704700BF024B13B1024800F005B870476F
:100C500000000000650C0008002301461A461846F3
:100C600000F014B838B5074D074C2C1BA41005D064
:100C7000013C55F8043D9847002CF9D1BDE83840B7
:100C800000F04AB8980D0008940D00082DE9F843CB
:100C90001B4D0646286898460F469146FFF7CEFF43
:100CA000184B1C681CB3286865681F2D22DC4EB9E0
:100CB0006B1C0235636044F82570FFF7C1FF00200C
:100CC000BDE8F88304EB85010123C1F88890D4F8CE
:100CD0008821AB401A43022EC4F88821C1F808814C
:100CE000E6D1D4F88C211A43C4F88C21E0E7064CF5
:100CF0001C60D8E7FFF7A4FF4FF0FF30E0E700BF2C
:100D0000080200208003002084030020F8B500BF03
:100D1000F8BC08BC9E467047F8B500BFF8BC08BCDC
:040D20009E46704734
:100D240067616D6D6100000074696D65000000000D
:100D3400736E6400200000002C0000006F6E000041
:100D4400536F756E64204F4E0D0A00006F66660087
:100D5400536F756E64204F46460D0A004745543A5A
:100D6400200000000D0A0000000000000000000048
:100D7400010203040607080900000000010203043D
:080D84007CF5FF7F0100000077
:080D8C00450C000849060008AF
:040D9400210600082C
:100D98000024F400080000200000000044020020A5
:100DA800AC02002014030020000000000000000036
:100DB800000000000000000000000000000000002B
:100DC800000000000000000000000000000000001B
:100DD800000000000000000000000000000000000B
:100DE80000000000000000000000000000000000FB
:100DF80000000000000000000000000000000000EB
:100E080000000000000000000000000000000000DA
:100E180000000000000000000000000000000000CA
:100E280000000000000000000000000000000000BA
:100E380001000000000000000E33CDAB34126DE657
:100E4800ECDE05000B0000000000000000000000C0
:100E5800000000000000000000000000000000008A
:100E6800000000000000000000000000000000007A
:100E7800000000000000000000000000000000006A
:100E8800000000000000000000000000000000005A
:100E9800000000000000000000000000000000004A
:100EA800000000000000000000000000000000003A
:100EB800000000000000000000000000000000002A
:100EC800000000000000000000000000000000001A
:100ED800000000000000000000000000000000000A
:100EE80000000000000000000000000000000000FA
:100EF80000000000000000000000000000000000EA
:100F080000000000000000000000000000000000D9
:100F180000000000000000000000000000000000C9
:100F280000000000000000000000000000000000B9
:100F380000000000000000000000000000000000A9
:100F48000000000000000000000000000000000099
:100F58000000000000000000000000000000000089
:100F68000000000000000000000000000000000079
:100F78000000000000000000000000000000000069
:100F88000000000000000000000000000000000059
:0C0F980000000000000000007C030020AE
:0400000508000AAD38
:00000001FF
