:020000040800F2
:100000000000012075050008C5050008C5050008A9
:10001000C5050008C5050008C5050008000000006A
:10002000000000000000000000000000C5050008FE
:10003000C505000800000000C5050008E903000828
:10004000C5050008C5050008C5050008C505000868
:10005000C5050008C5050008C5050008C505000858
:10006000C5050008C5050008C5050008C505000848
:10007000C5050008C5050008C5050008C505000838
:10008000C5050008C5050008C505000800000000FA
:10009000000000000000000000000000C50500088E
:1000A000C5050008C5050008C5050008C505000808
:1000B000C5050008C5050008C5050008C5050008F8
:1000C000C5050008C5050008C5050008C5050008E8
:1000D000C5050008C5050008C505000800000000AA
:1000E000C5050008C5050008C5050008000000009A
:1000F000000000000000000000000000C50500082E
:1001000000000000C5050008C5050008C505000879
:1001100000000000000000000000000000000000DF
:10012000C5050008C5050008C5050008C505000887
:10013000C5050008000000000000000000000000ED
:10014000000000000000000000000000C5050008DD
:10015000C5050008C5050008C5050008C505000857
:10016000C5050008C50500080000000000000000EB
:10017000000000000000000000000000000000007F
:1001800000000000C505000800000000000000009D
:04019000C505000899
:1001940080B400AF124B1B68114A43F00103136093
:1001A4000F4B00229A600E4B1B680D4A23F0847398
:1001B40023F4803313600A4B0A4A5A60084B1B68C5
:1001C400074A23F480231360054B0022DA60064BB0
:1001D4004FF000629A6000BFBD4680BC704700BF0C
:1001E400003802401030002400ED00E080B487B0F5
:1001F40000AF00233B6100237B610223FB600023EB
:10020400BB6002237B60344B9B6803F00C033B61AF
:100214003B69082B11D03B69082B44D83B69002B60
:1002240003D03B69042B04D03DE02C4B2C4A1A60CC
:100234003DE02A4B2B4A1A6039E0274B5B689B0D43
:1002440003F00103BB60244B5B6803F03F037B6056
:10025400BB68002B0CD0234A7B68B2FBF3F31E4A25
:1002640052689209C2F3080202FB03F37B610BE0BC
:100274001B4A7B68B2FBF3F3174A52689209C2F334
:10028400080202FB03F37B61134B5B681B0C03F056
:10029400030301335B00FB607A69FB68B2FBF3F391
:1002A4000E4A136003E00D4B0D4A1A6000BF0A4B5F
:1002B4009B681B0903F00F030B4AD35C3B61074B9C
:1002C4001A683B6922FA03F3044A136000BF1C371F
:1002D400BD4680BC704700BF0038024000000020CB
:1002E4000024F40040787D01000700080348044B13
:1002F400834202D0034B03B1184770470800002023
:1003040008000020000000000548064B1B1AD90F06
:1003140001EBA301491002D0034B03B11847704706
:1003240008000020080000200000000010B5064C62
:10033400237843B9FFF7DAFF044B13B10448AFF352
:1003440000800123237010BD08000020000000007D
:10035400E806000808B5054B1BB105490548AFF38D
:100364000080BDE80840FFF7CFBF00BF00000000D9
:100374000C000020E806000880B500AFFFF736FF48
:10038400084B1B68084AA2FB03239B09074A013B4D
:100394005360064B00229A60044B07221A6000BF88
:1003A40080BD00BF00000020D34D621010E000E0CB
:1003B40080B400AF094BDB68084A43F08073D36014
:1003C400074B00225A60064B1B68054A43F00103A1
:1003D400136000BFBD4680BC704700BFF0ED00E075
:1003E400001000E080B400AF044B1B680133034AE3
:1003F400136000BFBD4680BC704700BF24000020CE
:1004040080B485B000AF7860084B1B68FB6000BF08
:10041400064B1A68FB68D31A7A689A42F8D800BF68
:1004240000BF1437BD4680BC704700BF24000020C5
:1004340080B400AF0D4B1B6B0C4A43F001031363F4
:100444000A4B1B6B094A43F002031363074B1B6BF4
:10045400064A43F004031363054B1B68044A43F044
:100464008063136000BFBD4680BC70470038024003
:100474000008024080B500AF00F026F8FFF77CFFCB
:10048400FFF796FFFFF7D4FF0E4B4FF000529A612F
:100494004FF47A70FFF7B4FF0A4B5B69094A43F4DF
:1004A400005353614FF47A70FFF7AAFF054B5B6961
:1004B400044A23F4005353614FF47A70FFF7A0FF0A
:1004C40000BFE9E70008024080B500AF254B1B6878
:1004D400244A43F48033136000BF224B1B6803F4A7
:1004E4000033002BF9D01F4B1F4A5A601D4B1B6869
:1004F4001C4A43F08073136000BF1A4B1B6803F05F
:100504000073002BF9D0194B1B68184A43F4C063DD
:1005140043F002031360134B124A9B689360114B20
:100524009B68104A43F4A05393600E4B9B680D4A9A
:1005340043F4004393600B4B9B680A4A23F0030384
:100544009360084B9B68074A43F00203936000BF23
:10055400044B9B6803F00C03082BF9D1FFF746FE0C
:1005640000BF80BD0038024019544107003C0240DE
:10057400DFF834D0FFF70CFE0C480D490D4A002378
:1005840002E0D458C4500433C4188C42F9D30A4A44
:100594000A4C002301E013600432A242FBD300F0B2
:1005A40011F8FFF767FF70470000012000000020EA
:1005B400080000202407000808000020C0010020D3
:1005C400FEE7000070B50F4B0F4DAB42A3EB0506E1
:1005D40007D0B610002455F8043B01349847A642CE
:1005E400F9D800F07FF8094D094B5E1BAB424FEA86
:1005F400A60606D0002455F8043B01349847A642C9
:10060400F9D870BD18070008180700081807000873
:1006140020070008704700BF704700BF024B13B1AA
:10062400024800F005B870470000000041060008C9
:10063400002301461A46184600F014B838B5074D91
:10064400074C2C1BA41005D0013C55F8043D9847D9
:10065400002CF9D1BDE8384000F04AB8240700085E
:10066400200700082DE9F8431B4D064628689846E4
:100674000F469146FFF7CEFF184B1C681CB3286841
:1006840065681F2D22DC4EB96B1C0235636044F88B
:100694002570FFF7C1FF0020BDE8F88304EB850156
:1006A4000123C1F88890D4F88821AB401A43022E64
:1006B400C4F88821C1F80881E6D1D4F88C211A4302
:1006C400C4F88C21E0E7064C1C60D8E7FFF7A4FFD0
:1006D4004FF0FF30E0E700BF040000202C000020B2
:1006E40030000020F8B500BFF8BC08BC9E46704737
:0C06F400F8B500BFF8BC08BC9E4670477B
:1007000000000000000000000102030406070809C1
:080710000000000001020304D7
:08071800210600085903000846
:040720003103000899
:080724000024F400280000206D
:040000050800057575
:00000001FF
