:020000040800F2
:10000000000001205D060008AD060008AD060008EE
:10001000AD060008AD060008AD06000800000000AF
:10002000000000000000000000000000AD06000815
:10003000AD06000800000000AD060008110600082B
:10004000AD060008AD060008AD060008AD060008C4
:10005000AD060008AD060008AD060008AD060008B4
:10006000AD060008AD060008AD060008AD060008A4
:10007000AD060008AD060008AD060008AD06000894
:10008000AD060008AD060008AD060008000000003F
:10009000000000000000000000000000AD060008A5
:1000A000AD060008AD060008AD060008AD06000864
:1000B000AD060008AD060008AD060008AD06000854
:1000C000AD060008AD060008AD060008AD06000844
:1000D000AD060008AD060008AD06000800000000EF
:1000E000AD060008AD060008AD06000800000000DF
:1000F000000000000000000000000000AD06000845
:1001000000000000AD060008AD060008AD060008BE
:1001100000000000000000000000000000000000DF
:10012000AD060008AD060008AD060008AD060008E3
:10013000AD06000800000000000000000000000004
:10014000000000000000000000000000AD060008F4
:10015000AD060008AD060008AD060008AD060008B3
:10016000AD060008AD060008000000000000000019
:10017000000000000000000000000000000000007F
:1001800000000000AD0600080000000000000000B4
:04019000AD060008B0
:100194000348044B834202D0034B03B11847704712
:1001A40038040020380400200000000005480649F7
:1001B4000B1AD90F01EBA301491002D0034B03B171
:1001C400184770473804002038040020000000005D
:1001D40010B5064C237843B9FFF7DAFF044B13B18B
:1001E4000448AFF300800123237010BD38040020BD
:1001F40000000000C406000808B5044B1BB1044904
:100204000448AFF30080BDE80840CFE700000000D9
:100214003C040020C406000880B400AF124B1B68E5
:10022400114A43F0010313600F4B00229A600E4BF6
:100234001B680D4A23F0847323F4803313600A4B44
:100244000A4A5A60084B1B68074A23F48023136048
:10025400054B0022DA60064B4FF000629A6000BF43
:10026400BD4680BC704700BF0038024010300024F7
:1002740000ED00E080B487B000AF00233B610023B1
:100284007B610223FB600023BB6002237B60344B51
:100294009B6803F00C033B613B69082B11D03B695D
:1002A400082B44D83B69002B03D03B69042B04D0B2
:1002B4003DE02C4B2C4A1A603DE02A4B2B4A1A6035
:1002C40039E0274B5B689B0D03F00103BB60244BB3
:1002D4005B6803F03F037B60BB68002B0CD0234AB0
:1002E4007B68B2FBF3F31E4A52689209C2F3080218
:1002F40002FB03F37B610BE01B4A7B68B2FBF3F365
:10030400174A52689209C2F3080202FB03F37B61A5
:10031400134B5B681B0C03F0030301335B00FB60AE
:100324007A69FB68B2FBF3F30E4A136003E00D4BEA
:100334000D4A1A6000BF0A4B9B681B0903F00F03A8
:100344000B4AD35C3B61074B1A683B6922FA03F3FF
:10035400044A136000BF1C37BD4680BC704700BF11
:1003640000380240000000200024F40040787D01A1
:10037400DC060008002301461A46184600F03AB885
:1003840038B5084B084D5B1B9C1007D0043B1D443B
:10039400013C55F804399847002CF9D1BDE83840A0
:1003A40000F094B9040700080007000870B50D4E6A
:1003B4000D4D761BB61006D0002455F8043B0134CD
:1003C4009847A642F9D1094E094D761B00F078F9F9
:1003D400B61006D0002455F8043B01349847A642D1
:1003E400F9D170BDF8060008F806000800070008F7
:1003F400F806000870B4184C2568D5F848411CB3B9
:1004040065681F2D25DC38B9AB1C0135656044F8DF
:100414002310002070BC704704EB850C0228CCF834
:100424008820D4F888614FF0010202FA05F246EA06
:100434000206C4F88861CCF80831E5D1D4F88C31CF
:100444001343C4F88C31DFE705F5A674C5F84841B9
:10045400D6E74FF0FF30DDE7F406000880B400AFC4
:100464000D4B1B6B0C4A43F0010313630A4B1B6BCC
:10047400094A43F002031363074B1B6B064A43F01C
:1004840004031363054B1B68044A43F08063136041
:1004940000BFBD4680BC70470038024000080240DF
:1004A40080B500AF00F026F800F07AF800F094F878
:1004B400FFF7D4FF0E4B4FF000529A6141F288309F
:1004C40000F0B2F80A4B5B69094A43F400535361E4
:1004D40041F2883000F0A8F8054B5B69044A23F424
:1004E4000053536141F2883000F09EF8EAE700BF00
:1004F4000008024080B500AF264B1B68254A43F430
:100504008033136000BF234B1B6803F40033002BBC
:10051400F9D0204B204A5A601E4B1B681D4A43F0F9
:100524008073136000BF1B4B1B6803F00073002B28
:10053400F9D01A4B1B68194A43F4C06343F0020311
:100544001360144B9B68134A43F040039360114BB0
:100554009B68104A43F4A05393600E4B9B680D4A6A
:1005640043F4004393600B4B9B680A4A23F0030354
:100574009360084B9B68074A43F00203936000BFF3
:10058400044B9B6803F00C03082BF9D1FFF772FEB0
:1005940000BF80BD0038024019544407003C0240AB
:1005A40080B500AFFFF766FE084B1B68084AA2FB44
:1005B40003239B09074A013B5360064B00229A60C0
:1005C400044B07221A6000BF80BD00BF000000205A
:1005D400D34D621010E000E080B400AF094BDB683B
:1005E400084A43F08073D360074B00225A60064BDD
:1005F4001B68054A43F00103136000BFBD4680BC7D
:10060400704700BFF0ED00E0001000E080B400AFE0
:10061400044B1B680133034A136000BFBD4680BC12
:10062400704700BF5404002080B485B000AF7860E8
:10063400084B1B68FB6000BF064B1A68FB68D31AA3
:100644007A689A42F8D800BF00BF1437BD4680BC10
:10065400704700BF54040020DFF834D0FFF7DCFDFE
:100664000C480D490D4A002302E0D458C450043309
:10067400C4188C42F9D30A4A0A4C002301E01360DF
:100684000432A242FBD3FFF791FEFFF709FF704744
:1006940000000120000000203804002004070008A6
:1006A4003804002058040020FEE70000024B13B178
:1006B4000248FFF75FBE7047000000008503000892
:1006C400F8B500BFF8BC08BC9E467047F8B500BF3B
:0806D400F8BC08BC9E4670470B
:1006DC0000000000000000000102030406070809E6
:0C06EC00000000000102030410000020C8
:0806F800B1060008FD01000835
:04070000D501000817
:100704000024F4000000000010000020000000009D
:1007140000000000FC02002064030020CC03002041
:1007240000000000000000000000000000000000C5
:1007340000000000000000000000000000000000B5
:1007440000000000000000000000000000000000A5
:100754000000000000000000000000000000000095
:100764000000000000000000000000000000000085
:100774000000000000000000000000000000000075
:100784000000000000000000000000000000000065
:100794000000000000000000000000000000000055
:1007A4000000000000000000000000000000000045
:1007B4000000000000000000010000000000000034
:1007C4000E33CDAB34126DE6ECDE05000B000000F9
:1007D4000000000000000000000000000000000015
:1007E4000000000000000000000000000000000005
:1007F40000000000000000000000000000000000F5
:1008040000000000000000000000000000000000E4
:040000050800065D8C
:00000001FF
