:020000040800F2
:1000000000100020090700085507000855070008E0
:1000100000000000000000000000000000000000E0
:10002000000000000000000000000000550700086C
:1000300000000000000000005507000859050008F6
:100040005507000800000000550700085507000884
:100050005507000855070008550700085507000810
:100060000000000055070008550700085507000864
:100070005507000855070008550700080000000054
:1000800055070008000000000000000055070008A8
:100090000000000055070008550700085507000834
:1000A0000000000055070008000000005507000888
:1000B0000000000000000000000000000000000040
:1000C0000448054B10B5834203D0044B002B00D0ED
:1000D000984710BD0400002004000020000000002C
:1000E00006480749091A8B10C90FC91810B54910DD
:1000F00003D0044B002B00D0984710BD0400002013
:10010000040000200000000010B5074C2378002BED
:1001100009D1FFF7D5FF054B002B02D0044800E0C2
:1001200000BF0123237010BD040000200000000068
:1001300058070008054B10B5002B03D004490548AB
:1001400000E000BFFFF7CCFF10BDC046000000007C
:10015000080000205807000870B50C4D0C4E761BA7
:10016000B61005D0002408CD01349847A642FAD134
:1001700000F0F2FA074D084E761BB61005D00024A9
:1001800008CD01349847A642FAD170BD9007000807
:100190009007000890070008940700080022430811
:1001A0008B4274D303098B425FD3030A8B4244D33F
:1001B000030B8B4228D3030C8B420DD3FF22090281
:1001C00012BA030C8B4202D31212090265D0030B40
:1001D0008B4219D300E0090AC30B8B4201D3CB0336
:1001E000C01A5241830B8B4201D38B03C01A524178
:1001F000430B8B4201D34B03C01A5241030B8B427A
:1002000001D30B03C01A5241C30A8B4201D3CB0264
:10021000C01A5241830A8B4201D38B02C01A524149
:10022000430A8B4201D34B02C01A5241030A8B424C
:1002300001D30B02C01A5241CDD2C3098B4201D364
:10024000CB01C01A524183098B4201D38B01C01AE2
:10025000524143098B4201D34B01C01A5241030959
:100260008B4201D30B01C01A5241C3088B4201D308
:10027000CB00C01A524183088B4201D38B00C01AB5
:10028000524143088B4201D34B00C01A5241411ADC
:1002900000D20146524110467047FFE701B50020E9
:1002A00000F006F802BDC0460029F7D076E7704797
:1002B0007047C04690B583B000AF00F08FF800F0F3
:1002C0002DF900F049F996239B01180000F050F930
:1002D0003D4B5A693C4B802189020A435A613A4B93
:1002E0005A69394B8021C9020A435A619023DB05C0
:1002F0001A689023DB058021C9000A431A60902305
:10030000DB051A689023DB05802149010A431A6046
:100310009023DB051A689023DB058021C9010A437D
:100320001A609023DB051A689023DB058021C9053C
:100330000A431A60254B1A68244B25490A401A6063
:10034000224B1A68214B40210A431A601F4BDA687E
:100350001E4B04210A43DA609023DB055A6990237F
:10036000DB0520210A435A611A4B180000F0B6F948
:10037000FC1D00F08DF903002370FB1D1B78362B4C
:1003800008D19023DB055A699023DB0540210A43FD
:100390005A61EDE7FB1D1B78372B08D19023DB0555
:1003A0005A699023DB0580210A435A61E0E7FB1D6F
:1003B0001B78732B04D1084B180000F08FF9D7E796
:1003C00000F078F9D4E7C04600100240000400486D
:1003D00003FCFFFF700700087807000880B500AF36
:1003E000124B1A68114B802149020A431A60C04619
:1003F0000E4B1A6880239B021340F9D00B4B5A68AE
:100400000A4B03218A435A60084B5A68074B012163
:100410000A435A60C046054B5B680C221340042B0C
:10042000F9D1C046C046BD4680BDC046001002405E
:1004300080B584B000AF0023FB600023BB600023C5
:100440007B6000233B60314B5B680C221340FB60F8
:10045000FB68082B11D0FB68082B41D8FB68002BE8
:1004600003D0FB68042B04D03AE0294B294A1A60D8
:100470003AE0274B274A1A6036E0244B5A68F023AB
:100480009B031340BB60214B5A6880235B021340DF
:100490007B60BB689B0C0233BB601C4BDB6A0F228A
:1004A000134001333B607A6880235B029A420AD191
:1004B00039681848FFF772FE03001A00BB685A43F8
:1004C000134B1A6010E0B9680A005201521A9301E6
:1004D0009B1ADB005B181B021A000D4B1A6003E02D
:1004E0000B4B0C4A1A60C046084B5B681B090F2275
:1004F0001340094AD35CFB60054B1A68FB68DA407D
:10050000034B1A60C046BD4604B080BD00100240D7
:100510000000002000127A008007000880B500AFBC
:10052000FFF786FF0A4B1B68FA2291001800FFF7BD
:1005300035FE03001A00074B013A5A60054B0022B2
:100540009A60044B07221A60C046BD4680BDC04673
:100550000000002010E000E080B500AF034B1B68F6
:100560005A1C024B1A60C046BD4680BD20000020C8
:1005700080B584B000AF0200BB1D1A80334B5A69AE
:10058000324B802189020A435A61304B9A692F4BC2
:100590008021C9010A439A619023DB051A689023E0
:1005A000DB0530218A431A609023DB051A6890230B
:1005B000DB0520210A431A609023DB051A6890238B
:1005C000DB05C0218A431A609023DB051A6890235B
:1005D000DB0580210A431A609023DB055A689023CB
:1005E000DB050C218A435A609023DB059A6890232F
:1005F000DB05A0210A439A609023DB051A6A902349
:10060000DB0513490A401A629023DB051A6A90231E
:10061000DB05882149010A431A620E4B00221A6049
:100620000C4B00225A600B4B00229A600A4BFB6075
:10063000084B0A4ADA60074B1A68064B0D210A4339
:100640001A60C046BD4604B080BDC04600100240DE
:10065000FF00FFFF0038014000127A004103000054
:1006600080B582B000AF0200FB1D1A70C046074B78
:10067000DB6980221340FAD0044AFB1D1B789BB231
:100680001385C046BD4602B080BDC046003801405B
:1006900080B500AF064BDB692022134004D0044B29
:1006A0009B8C9BB2DBB2FFE71800BD4680BDC04605
:1006B0000038014080B500AF074BDB6920221340B2
:1006C00006D0054B9B8C9BB2DBB21800FFF7C8FF2E
:1006D000C046BD4680BDC0460038014080B582B0EE
:1006E00000AF786006E07B685A1C7A601B781800BF
:1006F000FFF7B6FF7B681B78002BF4D1C046C046DD
:10070000BD4602B080BD00000C4885460C480D492E
:100710000D4A002302E0D458C4500433C4188C425C
:10072000F9D30A4A0A4C002301E013600432A242C2
:10073000FBD3FFF711FDFFF7BDFDFEE70010002022
:10074000000000200400002098070008040000209A
:1007500024000020FEE70000F8B5C046F8BC08BC45
:100760009E467047F8B5C046F8BC08BC9E46704728
:100770005541525420454E00737472696E670000F3
:100780000000000000000000010203040607080941
:040790003501000827
:04079400090100084F
:0407980000127A00D1
:0400000508000709DF
:00000001FF
