:020000040800F2
:1000000000100020ED0B0008390C0008390C000826
:1000100000000000000000000000000000000000E0
:10002000000000000000000000000000390C000883
:100030000000000000000000390C0008590A000808
:10004000390C000800000000390C0008390C0008C9
:10005000390C0008390C0008390C0008390C00086C
:1000600000000000390C0008390C0008390C0008A9
:10007000390C0008390C0008390C00080000000099
:10008000390C00080000000000000000390C0008D6
:1000900000000000390C0008390C0008390C000879
:1000A00000000000390C000800000000390C0008B6
:1000B0000000000000000000000000000000000040
:1000C0000448054B10B5834203D0044B002B00D0ED
:1000D000984710BD0400002004000020000000002C
:1000E00006480749091A8B10C90FC91810B54910DD
:1000F00003D0044B002B00D0984710BD0400002013
:10010000040000200000000010B5074C2378002BED
:1001100009D1FFF7D5FF054B002B02D0044800E0C2
:1001200000BF0123237010BD040000200000000068
:100130003C0C0008054B10B5002B03D004490548C2
:1001400000E000BFFFF7CCFF10BDC046000000007C
:10015000080000203C0C000870B50C4D0C4E761BBE
:10016000B61005D0002408CD01349847A642FAD134
:1001700000F064FD074D084E761BB61005D0002434
:1001800008CD01349847A642FAD170BD900C000802
:10019000900C0008900C0008940C00080022430802
:1001A0008B4274D303098B425FD3030A8B4244D33F
:1001B000030B8B4228D3030C8B420DD3FF22090281
:1001C00012BA030C8B4202D31212090265D0030B40
:1001D0008B4219D300E0090AC30B8B4201D3CB0336
:1001E000C01A5241830B8B4201D38B03C01A524178
:1001F000430B8B4201D34B03C01A5241030B8B427A
:1002000001D30B03C01A5241C30A8B4201D3CB0264
:10021000C01A5241830A8B4201D38B02C01A524149
:10022000430A8B4201D34B02C01A5241030A8B424C
:1002300001D30B02C01A5241CDD2C3098B4201D364
:10024000CB01C01A524183098B4201D38B01C01AE2
:10025000524143098B4201D34B01C01A5241030959
:100260008B4201D30B01C01A5241C3088B4201D308
:10027000CB00C01A524183088B4201D38B00C01AB5
:10028000524143088B4201D34B00C01A5241411ADC
:1002900000D20146524110467047FFE701B50020E9
:1002A00000F0F0F802BDC0460029F7D076E77047AD
:1002B00003460B437FD4002243088B4274D30309C7
:1002C0008B425FD3030A8B4244D3030B8B4228D368
:1002D000030C8B420DD3FF22090212BA030C8B428E
:1002E00002D31212090265D0030B8B4219D300E02E
:1002F000090AC30B8B4201D3CB03C01A5241830BB3
:100300008B4201D38B03C01A5241430B8B4201D362
:100310004B03C01A5241030B8B4201D30B03C01A8B
:100320005241C30A8B4201D3CB02C01A5241830A05
:100330008B4201D38B02C01A5241430A8B4201D334
:100340004B02C01A5241030A8B4201D30B02C01A5E
:100350005241CDD2C3098B4201D3CB01C01A5241C5
:1003600083098B4201D38B01C01A524143098B424E
:1003700001D34B01C01A524103098B4201D30B0137
:10038000C01A5241C3088B4201D3CB00C01A52415C
:1003900083088B4201D38B00C01A524143088B4221
:1003A00001D34B00C01A5241411A00D201465241BA
:1003B000104670475DE0CA0F00D04942031000D3D9
:1003C0004042534000229C4603098B422DD3030A2E
:1003D0008B4212D3FC22890112BA030A8B420CD33E
:1003E000890192118B4208D3890192118B4204D367
:1003F00089013AD0921100E08909C3098B4201D3E7
:10040000CB01C01A524183098B4201D38B01C01A20
:10041000524143098B4201D34B01C01A5241030997
:100420008B4201D30B01C01A5241C3088B4201D346
:10043000CB00C01A524183088B4201D38B00C01AF3
:100440005241D9D243088B4201D34B00C01A5241CA
:10045000411A00D20146634652415B10104601D357
:100460004042002B00D54942704763465B1000D3E1
:10047000404201B5002000F005F802BD0029F8D087
:1004800016E770477047C04680B500AF294B5A69E0
:10049000284B8021C9020A435A61264BDA69254B51
:1004A000802189030A43DA61234B1A68224B2349CE
:1004B0000A401A60204B1A681F4B802189010A43A9
:1004C0001A601D4B1A681C4B1D490A401A601A4BD2
:1004D0001A68194B802109020A431A60164B5A68A0
:1004E000154BC0210A435A60134B9A68124BA02146
:1004F00009020A439A60104B1A6A0F4B1202120A41
:100500001A620D4B1A6A0C4B882149050A431A627C
:100510000C4B00221A600B4B00225A60094B0A4A0E
:100520001A61084B1A68074B01210A431A60C0463A
:10053000BD4680BD0010024000040048FFCFFFFF11
:10054000FF3FFFFF00540040130F421080B586B0FC
:1005500000AFF860B9607A60244B00225A60234BE8
:100560005A687B681B041900204B0A435A601F4BD2
:100570005A681E4B802189040A435A601B4B5A68F3
:10058000FB685B001900194B0A435A60174B5A6805
:10059000164B802189010A435A60C046134B9B6960
:1005A00002221340FAD000237B610EE0C0460F4BBD
:1005B0009B6902221340FAD07B69BA68D3181A7873
:1005C0000A4B9A627B6901337B617A697B689A4244
:1005D000ECDBC046054B9B6920221340FAD0034B4D
:1005E0002022DA61C046BD4606B080BD00540040FE
:1005F00080B586B000AFF860B9607A60254B002204
:100600005A60244B5A68234B8021C9000A435A6020
:10061000204B5A687B681B0419001E4B0A435A6022
:100620001C4B5A681B4B802189040A435A60194BA2
:100630005A68FB685B001900164B0A435A60154B59
:100640005A68144B802189010A435A6000237B6158
:100650000FE0C0460F4B9B6904221340FAD00D4BAC
:10066000596A7B69BA68D318CAB21A707B690133B8
:100670007B617A697B689A42EBDBC046054B9B69DC
:1006800020221340FAD0034B2022DA61C046BD4637
:1006900006B080BD0054004080B582B000AF7860E5
:1006A0002E4BCC229200DA612C4B00225A602B4A4E
:1006B0002A4B52685A60294B5A68284B802189047A
:1006C0000A435A60254B5A687B685B001900234B2C
:1006D0000A435A60214B5A68204B802189010A4302
:1006E0005A601F4BFA2292001A600AE01C4B1B68EA
:1006F0005A1E1B4B1A601A4B1B68002B01D100239A
:1007000027E0164B9B6970221340EFD0134B9B6977
:100710001022134004D0114B3022DA61002318E07C
:100720000F4BFA2292001A6008E00D4B1B685A1E0C
:100730000B4B1A600A4B1B68002B05D0074B9B69BB
:1007400020221340F1D000E0C046044B2022DA61A1
:1007500001231800BD4602B080BDC04600540040D1
:100760002000002080B586B000AF00F0B7F800F0A0
:1007700055F9FFF789FE96239B01180000F08EF9CA
:100780004F4B5A694E4B802189020A435A614C4BA8
:100790005A694B4B8021C9020A435A619023DB05F9
:1007A0001A689023DB058021C9000A431A60902350
:1007B000DB051A689023DB05802149010A431A6092
:1007C0009023DB051A689023DB058021C9010A43C9
:1007D0001A609023DB051A689023DB058021C90588
:1007E0000A431A60374B1A68364B0C218A431A6049
:1007F000344BDA68334B04210A43DA609023DB057B
:100800005A699023DB0520210A435A612E4B1800B8
:1008100000F0D6F90C203B182C4A118819809278E8
:100820009A703B18032219003820FFF78FFE082327
:10083000FB18274A1188198092789A70642000F07A
:1008400017F93820FFF728FF031E04D0214B1800AA
:1008500000F0B6F903E0204B180000F0B1F90823CE
:10086000FB18032219003820FFF770FE642000F007
:10087000FFF83B00062219003820FFF7B9FE3B00C5
:10088000DB781A04F0231B031A403B001B791B0280
:1008900013433A00527913437B617B69C822534367
:1008A0005B081E22524253403B613B69DBB2180099
:1008B00000F086F9FA235B00180000F0D9F8C0E7D1
:1008C0000010024000040048540C0008780C000896
:1008D0007C0C00085C0C0008680C000880B500AFB8
:1008E000124B1A68114B802149020A431A60C04614
:1008F0000E4B1A6880239B021340F9D00B4B5A68A9
:100900000A4B03218A435A60084B5A68074B01215E
:100910000A435A60C046054B5B680C221340042B07
:10092000F9D1C046C046BD4680BDC0460010024059
:1009300080B584B000AF0023FB600023BB600023C0
:100940007B6000233B60314B5B680C221340FB60F3
:10095000FB68082B11D0FB68082B41D8FB68002BE3
:1009600003D0FB68042B04D03AE0294B294A1A60D3
:100970003AE0274B274A1A6036E0244B5A68F023A6
:100980009B031340BB60214B5A6880235B021340DA
:100990007B60BB689B0C0233BB601C4BDB6A0F2285
:1009A000134001333B607A6880235B029A420AD18C
:1009B00039681848FFF7F2FB03001A00BB685A4376
:1009C000134B1A6010E0B9680A005201521A9301E1
:1009D0009B1ADB005B181B021A000D4B1A6003E028
:1009E0000B4B0C4A1A60C046084B5B681B090F2270
:1009F0001340094AD35CFB60054B1A68FB68DA4078
:100A0000034B1A60C046BD4604B080BD00100240D2
:100A10000000002000127A00800C000880B500AFB2
:100A2000FFF786FF0A4B1B68FA2291001800FFF7B8
:100A3000B5FB03001A00074B013A5A60054B002230
:100A40009A60044B07221A60C046BD4680BDC0466E
:100A50000000002010E000E080B500AF034B1B68F1
:100A60005A1C024B1A60C046BD4680BD24000020BF
:100A700080B584B000AF7860074B1B68FB60C04650
:100A8000054B1A68FB68D31A7A689A42F8D8C046B0
:100A9000C046BD4604B080BD2400002080B582B0B1
:100AA00000AF0200BB1D1A80354B5A69344B8021C0
:100AB00089020A435A61324B9A69314B8021C9013C
:100AC0000A439A619023DB051A689023DB053021E5
:100AD0008A431A609023DB051A689023DB052021E6
:100AE0000A431A609023DB051A689023DB05C021B6
:100AF0008A431A609023DB051A689023DB05802166
:100B00000A431A609023DB055A689023DB050C2109
:100B10008A435A609023DB059A689023DB05A02165
:100B20000A439A609023DB051A6A9023DB05154976
:100B30000A401A629023DB051A6A9023DB0588219C
:100B400049010A431A62104B00221A600E4B002220
:100B50005A600D4B00229A60BB1D1B8819000B4880
:100B6000FFF7A6FB03001A00074BDA60064B1A6872
:100B7000054B0D210A431A60C046BD4602B080BD38
:100B800000100240FF00FFFF0038014000127A0011
:100B900080B582B000AF0200FB1D1A70C046074B43
:100BA000DB6980221340FAD0044AFB1D1B789BB2FC
:100BB0001385C046BD4602B080BDC0460038014026
:100BC00080B582B000AF786006E07B685A1C7A601E
:100BD0001B781800FFF7DCFF7B681B78002BF4D133
:100BE000C046C046BD4602B080BD00000C488546E8
:100BF0000C480D490D4A002302E0D458C450043378
:100C0000C4188C42F9D30A4A0A4C002301E013604D
:100C10000432A242FBD3FFF79FFAFFF7A3FDFEE7E2
:100C2000001000200000002004000020980C0008A4
:100C30000400002028000020FEE70000F8B5C046B0
:100C4000F8BC08BC9E467047F8B5C046F8BC08BC66
:040C50009E46704705
:100C54005541525420454E0041485420454E0A0DFA
:100C640000000000493243206E6F6E6520307833F7
:100C7400380A0D00BE080000AC330000000000007C
:0C0C84000000000001020304060708093C
:040C90003501000822
:040C9400090100084A
:040C980000127A00CC
:0400000508000BEDF7
:00000001FF
