:020000040800F2
:10000000001000206D0A0008B90A0008B90A0008AB
:1000100000000000000000000000000000000000E0
:10002000000000000000000000000000B90A000805
:100030000000000000000000B90A0008D90800080C
:10004000B90A000800000000B90A0008B90A00084F
:10005000B90A0008B90A0008B90A0008B90A000874
:1000600000000000B90A0008B90A0008B90A00082F
:10007000B90A0008B90A0008B90A0008000000001F
:10008000B90A00080000000000000000B90A0008DA
:1000900000000000B90A0008B90A0008B90A0008FF
:1000A00000000000B90A000800000000B90A0008BA
:1000B0000000000000000000000000000000000040
:1000C0000448054B10B5834203D0044B002B00D0ED
:1000D000984710BD0400002004000020000000002C
:1000E00006480749091A8B10C90FC91810B54910DD
:1000F00003D0044B002B00D0984710BD0400002013
:10010000040000200000000010B5074C2378002BED
:1001100009D1FFF7D5FF054B002B02D0044800E0C2
:1001200000BF0123237010BD040000200000000068
:10013000BC0A0008054B10B5002B03D00449054844
:1001400000E000BFFFF7CCFF10BDC046000000007C
:1001500008000020BC0A000870B50C4D0C4E761B40
:10016000B61005D0002408CD01349847A642FAD134
:1001700000F0A4FC074D084E761BB61005D00024F5
:1001800008CD01349847A642FAD170BD2C0B000867
:100190002C0B00082C0B0008300B00080022430831
:1001A0008B4274D303098B425FD3030A8B4244D33F
:1001B000030B8B4228D3030C8B420DD3FF22090281
:1001C00012BA030C8B4202D31212090265D0030B40
:1001D0008B4219D300E0090AC30B8B4201D3CB0336
:1001E000C01A5241830B8B4201D38B03C01A524178
:1001F000430B8B4201D34B03C01A5241030B8B427A
:1002000001D30B03C01A5241C30A8B4201D3CB0264
:10021000C01A5241830A8B4201D38B02C01A524149
:10022000430A8B4201D34B02C01A5241030A8B424C
:1002300001D30B02C01A5241CDD2C3098B4201D364
:10024000CB01C01A524183098B4201D38B01C01AE2
:10025000524143098B4201D34B01C01A5241030959
:100260008B4201D30B01C01A5241C3088B4201D308
:10027000CB00C01A524183088B4201D38B00C01AB5
:10028000524143088B4201D34B00C01A5241411ADC
:1002900000D20146524110467047FFE701B50020E9
:1002A00000F0F0F802BDC0460029F7D076E77047AD
:1002B00003460B437FD4002243088B4274D30309C7
:1002C0008B425FD3030A8B4244D3030B8B4228D368
:1002D000030C8B420DD3FF22090212BA030C8B428E
:1002E00002D31212090265D0030B8B4219D300E02E
:1002F000090AC30B8B4201D3CB03C01A5241830BB3
:100300008B4201D38B03C01A5241430B8B4201D362
:100310004B03C01A5241030B8B4201D30B03C01A8B
:100320005241C30A8B4201D3CB02C01A5241830A05
:100330008B4201D38B02C01A5241430A8B4201D334
:100340004B02C01A5241030A8B4201D30B02C01A5E
:100350005241CDD2C3098B4201D3CB01C01A5241C5
:1003600083098B4201D38B01C01A524143098B424E
:1003700001D34B01C01A524103098B4201D30B0137
:10038000C01A5241C3088B4201D3CB00C01A52415C
:1003900083088B4201D38B00C01A524143088B4221
:1003A00001D34B00C01A5241411A00D201465241BA
:1003B000104670475DE0CA0F00D04942031000D3D9
:1003C0004042534000229C4603098B422DD3030A2E
:1003D0008B4212D3FC22890112BA030A8B420CD33E
:1003E000890192118B4208D3890192118B4204D367
:1003F00089013AD0921100E08909C3098B4201D3E7
:10040000CB01C01A524183098B4201D38B01C01A20
:10041000524143098B4201D34B01C01A5241030997
:100420008B4201D30B01C01A5241C3088B4201D346
:10043000CB00C01A524183088B4201D38B00C01AF3
:100440005241D9D243088B4201D34B00C01A5241CA
:10045000411A00D20146634652415B10104601D357
:100460004042002B00D54942704763465B1000D3E1
:10047000404201B5002000F005F802BD0029F8D087
:1004800016E770477047C04680B500AF2F4B5A69DA
:100490002E4B8021C9020A435A612C4BDA692B4B3F
:1004A000802189030A43DA61294B1A68284B2949BC
:1004B0000A401A60264B1A68254B802189010A439D
:1004C0001A60234B1A68224B23490A401A60204BBA
:1004D0001A681F4B802109020A431A601C4B5A6894
:1004E0001B4BC0210A435A60194B9A68184BA02134
:1004F00009020A439A60164B1A6A154B1202120A35
:100500001A62134B1A6A124B882149050A431A6270
:10051000124B00221A60114B00225A600F4B1A68CE
:100520000E4B04210A431A600C4B1A680B4B022134
:100530000A431A60094B0A4A1A61084B1A68074BAA
:1005400001210A431A60C046BD4680BD001002402A
:1005500000040048FFCFFFFFFF3FFFFF00540040B3
:10056000130F421080B582B000AF7860304BCC22C0
:100570009200DA612E4B00225A602D4A2C4B5268B1
:100580005A602B4A2A4B52685A60294B5A68284BAA
:10059000802189040A435A60254B5A687B685B00B6
:1005A0001900234B0A435A60214B5A68204B802183
:1005B00089010A435A601F4BFA2292001A600AE02E
:1005C0001C4B1B685A1E1B4B1A601A4B1B68002BD6
:1005D00001D1002327E0164B9B6970221340EFD016
:1005E000134B9B691022134004D0114B3022DA6167
:1005F000002318E00F4BFA2292001A6008E00D4B1E
:100600001B685A1E0B4B1A600A4B1B68002B05D047
:10061000074B9B6920221340F1D000E0C046044BF9
:100620002022DA6101231800BD4602B080BDC04619
:10063000005400402000002080B500AF00F08EF88C
:1006400000F02CF9FFF720FF96239B01180000F023
:1006500065F93B4B5A693A4B802189020A435A613A
:10066000374B5A69364B8021C9020A435A6190239D
:10067000DB051A689023DB058021C9000A431A6054
:100680009023DB051A689023DB05802149010A438A
:100690001A609023DB051A689023DB058021C901CD
:1006A0000A431A609023DB051A689023DB0580213A
:1006B000C9050A431A60234B1A68224B0C218A434E
:1006C0001A60204BDA681F4B04210A43DA6090233A
:1006D000DB055A699023DB0520210A435A611A4B36
:1006E000180000F0ADF9FA239B00180000F000F9A3
:1006F0003820FFF737FF031E04D0144B180000F01A
:100700009FF903E0124B180000F09AF9FA235B00FE
:10071000180000F0EDF87720FFF724FF031E04D047
:100720000C4B180000F08CF903E00B4B180000F0A4
:1007300087F9FA235B00180000F0DAF8D8E7C04622
:100740000010024000040048DC0A0008E40A000827
:10075000F00A0008000B00080C0B000880B500AF81
:10076000124B1A68114B802149020A431A60C04695
:100770000E4B1A6880239B021340F9D00B4B5A682A
:100780000A4B03218A435A60084B5A68074B0121E0
:100790000A435A60C046054B5B680C221340042B89
:1007A000F9D1C046C046BD4680BDC04600100240DB
:1007B00080B584B000AF0023FB600023BB60002342
:1007C0007B6000233B60314B5B680C221340FB6075
:1007D000FB68082B11D0FB68082B41D8FB68002B65
:1007E00003D0FB68042B04D03AE0294B294A1A6055
:1007F0003AE0274B274A1A6036E0244B5A68F02328
:100800009B031340BB60214B5A6880235B0213405B
:100810007B60BB689B0C0233BB601C4BDB6A0F2206
:10082000134001333B607A6880235B029A420AD10D
:1008300039681848FFF7B2FC03001A00BB685A4336
:10084000134B1A6010E0B9680A005201521A930162
:100850009B1ADB005B181B021A000D4B1A6003E0A9
:100860000B4B0C4A1A60C046084B5B681B090F22F1
:100870001340094AD35CFB60054B1A68FB68DA40F9
:10088000034B1A60C046BD4604B080BD0010024054
:100890000000002000127A001C0B000880B500AF99
:1008A000FFF786FF0A4B1B68FA2291001800FFF73A
:1008B00075FC03001A00074B013A5A60054B0022F1
:1008C0009A60044B07221A60C046BD4680BDC046F0
:1008D0000000002010E000E080B500AF034B1B6873
:1008E0005A1C024B1A60C046BD4680BD2400002041
:1008F00080B584B000AF7860074B1B68FB60C046D2
:10090000054B1A68FB68D31A7A689A42F8D8C04631
:10091000C046BD4604B080BD2400002080B582B032
:1009200000AF0200BB1D1A80354B5A69344B802141
:1009300089020A435A61324B9A69314B8021C901BD
:100940000A439A619023DB051A689023DB05302166
:100950008A431A609023DB051A689023DB05202167
:100960000A431A609023DB051A689023DB05C02137
:100970008A431A609023DB051A689023DB058021E7
:100980000A431A609023DB055A689023DB050C218B
:100990008A435A609023DB059A689023DB05A021E7
:1009A0000A439A609023DB051A6A9023DB051549F8
:1009B0000A401A629023DB051A6A9023DB0588211E
:1009C00049010A431A62104B00221A600E4B0022A2
:1009D0005A600D4B00229A60BB1D1B8819000B4802
:1009E000FFF766FC03001A00074BDA60064B1A6833
:1009F000054B0D210A431A60C046BD4602B080BDBA
:100A000000100240FF00FFFF0038014000127A0092
:100A100080B582B000AF0200FB1D1A70C046074BC4
:100A2000DB6980221340FAD0044AFB1D1B789BB27D
:100A30001385C046BD4602B080BDC04600380140A7
:100A400080B582B000AF786006E07B685A1C7A609F
:100A50001B781800FFF7DCFF7B681B78002BF4D1B4
:100A6000C046C046BD4602B080BD00000C48854669
:100A70000C480D490D4A002302E0D458C4500433F9
:100A8000C4188C42F9D30A4A0A4C002301E01360CF
:100A90000432A242FBD3FFF75FFBFFF7CDFDFEE779
:100AA000001000200000002004000020340B00088B
:100AB0000400002028000020FEE70000F8B5C04632
:100AC000F8BC08BC9E467047F8B5C046F8BC08BCE8
:040AD0009E46704787
:100AD400474554200A0D00005541525420454E000C
:100AE4004745542033380A0D0000000049324320A2
:100AF4006E6F6E652033380A0D00000047455420A0
:100B04003737200A0D000000493243206E6F6E65AE
:100B14002037370A0D00000000000000000000002C
:080B24000102030406070809A1
:040B2C003501000887
:040B300009010008AF
:040B340000127A0031
:0400000508000A6D78
:00000001FF
