:020000040800F2
:1000000000100020CD08000819090008190900088F
:1000100000000000000000000000000000000000E0
:1000200000000000000000000000000019090008A6
:100030000000000000000000190900083106000857
:100040001909000800000000190900081909000832
:1000500019090008190900081909000819090008F8
:100060000000000019090008190900081909000812
:100070001909000819090008190900080000000002
:10008000190900080000000000000000190900081C
:1000900000000000190900081909000819090008E2
:1000A00000000000190900080000000019090008FC
:1000B0000000000000000000000000000000000040
:1000C000002243088B4274D303098B425FD3030A97
:1000D0008B4244D3030B8B4228D3030C8B420DD3AA
:1000E000FF22090212BA030C8B4202D31212090238
:1000F00065D0030B8B4219D300E0090AC30B8B4276
:1001000001D3CB03C01A5241830B8B4201D38B0323
:10011000C01A5241430B8B4201D34B03C01A5241C8
:10012000030B8B4201D30B03C01A5241C30A8B420B
:1001300001D3CB02C01A5241830A8B4201D38B02F6
:10014000C01A5241430A8B4201D34B02C01A52419A
:10015000030A8B4201D30B02C01A5241CDD2C3090C
:100160008B4201D3CB01C01A524183098B4201D388
:100170008B01C01A524143098B4201D34B01C01A73
:10018000524103098B4201D30B01C01A5241C308EB
:100190008B4201D3CB00C01A524183088B4201D35A
:1001A0008B00C01A524143088B4201D34B00C01A46
:1001B0005241411A00D20146524110467047FFE7B2
:1001C00001B5002000F0F0F802BDC0460029F7D0CC
:1001D00076E7704703460B437FD4002243088B42E7
:1001E00074D303098B425FD3030A8B4244D3030BBE
:1001F0008B4228D3030C8B420DD3FF22090212BA83
:10020000030C8B4202D31212090265D0030B8B42FE
:1002100019D300E0090AC30B8B4201D3CB03C01AE8
:100220005241830B8B4201D38B03C01A5241430BC3
:100230008B4201D34B03C01A5241030B8B4201D3B3
:100240000B03C01A5241C30A8B4201D3CB02C01A1E
:100250005241830A8B4201D38B02C01A5241430A96
:100260008B4201D34B02C01A5241030A8B4201D385
:100270000B02C01A5241CDD2C3098B4201D3CB012C
:10028000C01A524183098B4201D38B01C01A5241DB
:1002900043098B4201D34B01C01A524103098B42DF
:1002A00001D30B01C01A5241C3088B4201D3CB00CA
:1002B000C01A524183088B4201D38B00C01A5241AD
:1002C00043088B4201D34B00C01A5241411A00D25D
:1002D00001465241104670475DE0CA0F00D04942C6
:1002E000031000D34042534000229C4603098B4236
:1002F0002DD3030A8B4212D3FC22890112BA030ABE
:100300008B420CD3890192118B4208D3890192113F
:100310008B4204D389013AD0921100E08909C309C4
:100320008B4201D3CB01C01A524183098B4201D3C6
:100330008B01C01A524143098B4201D34B01C01AB1
:10034000524103098B4201D30B01C01A5241C30829
:100350008B4201D3CB00C01A524183088B4201D398
:100360008B00C01A5241D9D243088B4201D34B00B3
:10037000C01A5241411A00D20146634652415B10F5
:10038000104601D34042002B00D5494270476346D6
:100390005B1000D3404201B5002000F005F802BD1B
:1003A0000029F8D016E770477047C0460448054B4F
:1003B00010B5834203D0044B002B00D0984710BDEA
:1003C0000400002004000020000000000648074947
:1003D000091A8B10C90FC91810B5491003D0044B66
:1003E000002B00D0984710BD04000020040000201E
:1003F0000000000010B5074C2378002B09D1FFF74F
:10040000D5FF054B002B02D0044800E000BF0123BC
:10041000237010BD040000200000000064090008E3
:10042000054B10B5002B03D00449054800E000BF80
:10043000FFF7CCFF10BDC046000000000800002000
:100440006409000880B500AF294B5A69284B802108
:10045000C9020A435A61264BDA69254B8021890378
:100460000A43DA61234B1A68224B23490A401A6077
:10047000204B1A681F4B802189010A431A601D4BCB
:100480001A681C4B1D490A401A601A4B1A68194B0E
:10049000802109020A431A60164B5A68154BC02185
:1004A0000A435A60134B9A68124BA02109020A436F
:1004B0009A60104B1A6A0F4B1202120A1A620D4B05
:1004C0001A6A0C4B882149050A431A620C4B002218
:1004D0001A600B4B00225A60094B0A4A1A61084BFA
:1004E0001A68074B01210A431A60C046BD4680BD09
:1004F0000010024000040048FFCFFFFFFF3FFFFF56
:1005000000540040130F421080B584B000AF0023A8
:10051000FB600023BB6000237B6000233B60314B0A
:100520005B680C221340FB60FB68082B11D0FB6852
:10053000082B41D8FB68002B03D0FB68042B04D0A8
:100540003AE0294B294A1A603AE0274B274A1A60B9
:1005500036E0244B5A68F0239B031340BB60214BC9
:100560005A6880235B0213407B60BB689B0C02339C
:10057000BB601C4BDB6A0F22134001333B607A687F
:1005800080235B029A420AD139681848FFF798FD28
:1005900003001A00BB685A43134B1A6010E0B96895
:1005A0000A005201521A93019B1ADB005B181B02CE
:1005B0001A000D4B1A6003E00B4B0C4A1A60C04640
:1005C000084B5B681B090F221340094AD35CFB6090
:1005D000054B1A68FB68DA40034B1A60C046BD46FB
:1005E00004B080BD001002400000002000127A001C
:1005F0008C09000880B500AFFFF786FF0A4B1B6827
:10060000FA2291001800FFF75BFD03001A00074B68
:10061000013A5A60054B00229A60044B07221A6087
:10062000C046BD4680BDC0460000002010E000E08E
:1006300080B500AF034B1B685A1C024B1A60C046C2
:10064000BD4680BD2000002080B584B000AF78603A
:10065000074B1B68FB60C046054B1A68FB68D31A42
:100660007A689A42F8D8C046C046BD4604B080BDFC
:100670002000002080B500AF124B5A69114B802139
:1006800089020A435A610F4B5A690E4B8021C902F5
:100690000A435A619023DB051A689023DB05802109
:1006A000C9000A431A60084B1A68074B0C218A4399
:1006B0001A60054BDA68044B04210A43DA60C0462D
:1006C000BD4680BD001002400004004880B588B0DF
:1006D00000AF00F0D7F8FFF78DFFFFF7B3FE9623CA
:1006E0009B01180000F026F8FFF7C4FF0E4B18001E
:1006F00000F0B2F89023DB051A689023DB05032194
:100700008A431A609023DB051B690122134003D042
:10071000064B180000F0A0F8054B180000F09CF8FC
:100720006420FFF791FFEDE77C09000884090008C9
:100730008809000880B582B000AF0200BB1D1A8096
:10074000354B5A69344B802189020A435A61324B36
:100750009A69314B8021C9010A439A619023DB05D4
:100760001A689023DB0530218A431A609023DB0549
:100770001A689023DB0520210A431A609023DB05C9
:100780001A689023DB05C0218A431A609023DB0599
:100790001A689023DB0580210A431A609023DB0549
:1007A0005A689023DB050C218A435A609023DB05AD
:1007B0009A689023DB05A0210A439A609023DB0509
:1007C0001A6A9023DB0515490A401A629023DB055B
:1007D0001A6A9023DB05882149010A431A62104BEB
:1007E00000221A600E4B00225A600D4B00229A60C4
:1007F000BB1D1B8819000B48FFF7ECFC03001A0017
:10080000074BDA60064B1A68054B0D210A431A6044
:10081000C046BD4602B080BD00100240FF00FFFF91
:100820000038014000127A0080B582B000AF0200AB
:10083000FB1D1A70C046074BDB6980221340FAD0BB
:10084000044AFB1D1B789BB21385C046BD4602B00F
:1008500080BDC0460038014080B582B000AF7860EE
:1008600006E07B685A1C7A601B781800FFF7DCFFF3
:100870007B681B78002BF4D1C046C046BD4602B051
:1008800080BD000080B500AF0F4B1A680E4B0121F0
:100890000A431A60C0460C4B1B6802221340FAD070
:1008A000094B5A68084B03218A435A60064A064B93
:1008B00052685A60C046044B5B680C221340FAD160
:1008C000C046C046BD4680BD001002400C4885466B
:1008D0000C480D490D4A002302E0D458C45004339B
:1008E000C4188C42F9D30A4A0A4C002301E0136071
:1008F0000432A242FBD300F011F8FFF7E7FEFEE757
:10090000001000200000002004000020A4090008BE
:100910000400002024000020FEE7000070B500263F
:100920000C4C0D4D641BA410A64209D1002600F00A
:1009300019F80A4C0A4D641BA410A64205D170BDDB
:10094000B300EB5898470136EEE7B300EB589847F1
:100950000136F2E79C0900089C090008A00900087C
:100960009C090008F8B5C046F8BC08BC9E46704714
:0C097000F8B5C046F8BC08BC9E467047B5
:10097C005541525420454E0031000000300000001B
:10098C000000000000000000010203040607080933
:04099C00210400082A
:0409A000F503000853
:0409A40000127A00C3
:04000005080008CD1A
:00000001FF
