:020000040800F2
:1000000000100020AD180008F9180008F9180008C1
:1000100000000000000000000000000000000000E0
:10002000000000000000000000000000F9180008B7
:100030000000000000000000F9180008F116000898
:10004000F918000800000000F9180008F918000865
:10005000F9180008F9180008F9180008F91800083C
:1000600000000000F9180008F9180008F918000845
:10007000F9180008F9180008F91800080000000035
:10008000F91800080000000000000000F91800083E
:1000900000000000F9180008F9180008F918000815
:1000A00000000000F918000800000000F91800081E
:1000B0000000000000000000000000000000000040
:1000C0000448054B10B5834203D0044B002B00D0ED
:1000D000984710BD68000020680000200000000064
:1000E00006480749091A8B10C90FC91810B54910DD
:1000F00003D0044B002B00D0984710BD68000020AF
:10010000680000200000000010B5074C2378002B89
:1001100009D1FFF7D5FF054B002B02D0044800E0C2
:1001200000BF0123237010BD680000200000000004
:10013000FC180008054B10B5002B03D004490548F6
:1001400000E000BFFFF7CCFF10BDC046000000007C
:100150006C000020FC18000870B50C4D0C4E761B8E
:10016000B61005D0002408CD01349847A642FAD134
:1001700001F0C4FB074D084E761BB61005D00024D5
:1001800008CD01349847A642FAD170BD0C1A000878
:100190000C1A00080C1A0008101A00080CB400B55C
:1001A0009DB00291069109491EAB0791049108493F
:1001B00004CB059102A9019300F022F90023029AD1
:1001C00013701DB008BC02B01847C046FFFFFF7F88
:1001D0000802FFFF0EB400B50B499CB007910491D3
:1001E0000A491DAB05910A4904CB029006900868A4
:1001F00002A9019300F004F90023029A13701CB0C5
:1002000008BC03B01847C046FFFFFF7F0802FFFF8E
:1002100000000020F0B5D6464F464646C0B58F6870
:1002200082460C0016001D009F423BD890228B890D
:10023000D200134212D13D0008682A00310000F0BC
:100240006BFCA3680020DF1B2368A7609C46654405
:100250002560E0BCBA46B146A846F0BD09692268EF
:100260006069521A914642001218D00F8218681C19
:10027000521048449046904201D9804602005B05E6
:1002800013D51100504600F0FDFC071E21D04A4650
:10029000216900F0EFFBA389134A13408022134326
:1002A000A38107E01F000868C7E7504600F04CFD37
:1002B000071E0AD0380043464A46484463619B1AE9
:1002C000276120602F00A360B7E75046216900F046
:1002D00079FC0C235246136040220120A38940423E
:1002E0001343A381B5E7C0467FFBFFFFF0B54E4641
:1002F0004546DE465746E0B5936883B00D0091460B
:100300000190002B6AD0176808688C6843E090223F
:10031000AB89D20013422ED02969421A93466869EC
:1003200042001218D00F8218701C52105844904688
:10033000904201D9804602008020C000034236D09E
:100340001100019800F09EFC041E52D05A46296903
:1003500000F090FBAB89294A134080221343AB8104
:10036000434620005A462C61B046340058446B6125
:100370009B1A2860AB604246514600F0CDFBAB684B
:1003800028681C1B4B469B6840449E1B4B46AC6038
:1003900028609E6022D03B687E689A460837002E0F
:1003A000F9D0A046B442B2D93400B046E3E7019890
:1003B00000F0CAFC041ED3D1019C2969200000F082
:1003C00001FC0C2323604022AB8901201343AB8145
:1003D0004A46002340429360536003E000234A46AC
:1003E0000020536003B0F0BCBB46B246A946A0460D
:1003F000F0BD0C23019A1360E5E7C0467FFBFFFFC9
:10040000F0B5DE46574645464E46E0B51C008B89A2
:1004100082468B4690469DB01B0603D50B69002B88
:1004200000D1EDE0002304AD6B6120336B76103317
:10043000AB7643461B787C4E0394002B74D0444625
:1004400004E063780134002B00D17AE0252BF8D149
:100450004346E71A444500D077E02378002B63D069
:100460000122002352426A604432671C2B60EB6019
:10047000AB60AB54AB6506E00123801B83402A6868
:10048000013713432B6005223000397800F0B8FAA9
:100490000028F1D12B68DA0602D543222021A95485
:1004A0001A0702D543222B21A95439782A2958D179
:1004B000039A111D12680391002A00DA7CE0EA60B9
:1004C00079787C1C2E295FD0584B0322180098465F
:1004D00000F096FA002807D04346C01A4023834014
:1004E0002A68013413432B602178631C062250488C
:1004F0009846297600F084FA002863D04D4B002BF3
:1005000053D003AB00935A46290050464A4B00E0B3
:1005100000BF81464B46013306D06B694B446B618B
:1005200043461B78002B8AD15B469B895B0600D52E
:1005300072E068691DB0F0BCBB46B246A946A04651
:10054000F0BD4346E71A4445EED03B0042465946CB
:100550005046FFF75FFE431CE6D06B69DB196B6109
:100560007BE70800303809280BD8EB689A00D318CD
:1005700079785B001B180800303801370928F5D955
:10058000EB603C002E299FD161782A2924D1039B5E
:10059000A01C1A1D1B6803926B60002B02DA01235A
:1005A0005B426B60A17804008EE70722039B073350
:1005B000934308330393B0E75242EA6002221343A5
:1005C0002B607DE703AB00935A46290050461A4B37
:1005D00000F0D2F881469DE708000023303801344E
:1005E0006B60092800D96FE79A00D31861785B0027
:1005F0001B180800303801340928F5D96B6063E70F
:10060000402100F03FFB5B4618601861002806D0CF
:1006100040235A46536105E7012040428AE70C23F4
:1006200052460138136085E7D0190008D819000830
:10063000DC1900080000000015020008F8B5574654
:100640004E46DE464546E0B51F000A9B9246994657
:100650000A698B6806000C009A4200DA1A005346B9
:100660001A604323E35C002B02D0514601320A603A
:1006700021688A065ED55346524606201B6802331F
:10068000136021680A00084209D1E268D31A1922CE
:1006900093460022A34490460A00002B42DC4323E9
:1006A000E35C591E8B4192060AD53020E118433194
:1006B000087045215A1C615CA21843320233117044
:1006C0002200390030004332C847431C19D00623AA
:1006D00022681340042B33D0A368226993423DDD86
:1006E000002188469B1A984400251A3402E00135FF
:1006F000454533DA0123220039003000C847431C46
:10070000F5D101204042F0BCBB46B246A946A04606
:10071000F8BD01239C465346E2681B68E044D51AA5
:10072000454520DD01235A4639003000C847431CA7
:10073000EFD1E6E706220A4212D05A1E9341BFE7E4
:1007400053461968E3682269591ACB43DB170B40FB
:100750009846A3689342C5DC0029C5DC0020D2E797
:1007600053461B6891E743232268E35C591E8B4183
:1007700092069AD4A4E7C046F0B54E469946432364
:100780009C4657464546DE468C446346E0B587B0F6
:1007900003930C00097E90460700109A002914D09C
:1007A0000B00583BDBB2202B4BD892489B00C35820
:1007B0009F462368190602D45B0600D501E1136841
:1007C000191D11601B6862691A600023039D236173
:1007D0004B46210000933800434605AAFFF72EFF41
:1007E000431C1FD023692A0041463800C847431CD8
:1007F00018D023689B071ED5E36805981A1A002AAB
:100800001BDD26000025193605E0E3680598013553
:100810001A1AAA4211DD0123320041463800C847A6
:10082000431CF2D10120404207B0F0BCBB46B246A7
:10083000A946A046F0BDE36805989842F4DA18008E
:10084000F2E742232500E154413B42352361432333
:100850000022E254BCE72368190602D4590600D5E9
:10086000BBE01168081D10600A681600002A75DBDD
:10087000614B9B460A239A464DE02368180602D432
:100880005B0600D5A4E01368181D10601E685A4B63
:100890009B466F2900D1A7E00A239A4638E01368E7
:1008A0002500191D11601A684223E254413B42356C
:1008B0002361CCE71368191D11601D680021280011
:1008C000626800F09DF8002800D190E0401B606055
:1008D0002061BCE7202321680B4323604521782059
:1008E000605446498B46190631D459062FD51168F4
:1008F000081D0E881060DA0702D5202213432360FA
:1009000010239A46002E03D1226810339A432260A6
:1009100043230022E2546368A360002B48DB0422D7
:10092000216891432160002E27D1002B42D1039DE5
:100930005346082B31D0039B5B1B236148E74523BB
:100940005821E15423682C498B461906CDD51168EE
:10095000081D10600E68CEE72368BFE743222D21F3
:10096000A15462687642A260002A02DB042293430B
:100970002360214B9B460A239A46039D3000514633
:1009800000F0B0FA5B465B5C013D2B703300060063
:100990005345F3D25346082BCDD12368DB07CAD584
:1009A000636822699342C6DC3023013D2B70C2E7A5
:1009B000002EE2D15B4625001A7842234235E254EC
:1009C000B6E713686169181D10601B681980FCE6A2
:1009D0001368181D1E88106059E71168081D106003
:1009E00000228E5E320041E708239A4690E7606855
:1009F00020612CE73C190008E4190008F8190008E8
:100A000070B5CCB283070DD0531E002A0FD003253A
:100A100004E00130284206D0013B08D30278A2420C
:100A2000F7D170BD1300032B0CD8002B01D100208F
:100A3000F7E7C31802E001308342F8D00278A242FF
:100A4000F9D1EEE7FF2529400D0229430D04074E99
:100A50000D43026806496A40511891433142E8D17A
:100A6000043B0430032BF4D8DFE7C046808080804D
:100A7000FFFEFEFEF0B5C64600B50F2A41D903279A
:100A80000D003E0005430C0003002E402F423DD1D7
:100A90001500103D2D09A8462D01AC468444276859
:100AA0001D001F6067685F60A7689F60E76810347B
:100AB000DF6010336545F2D145460F230C24013524
:100AC0002D01491913404519144222D08C59AC51BB
:100AD00004369C1B032CF9D8043B9B0801339B0074
:100AE000ED18C91803231A40561E002A06D0002309
:100AF000CC5C1A00EC5401339642F9D180BCB84664
:100B0000F0BD0500561E002AF1D1F7E70500561E7C
:100B1000EDE71A00F6E7C046F0B588420AD98B180F
:100B2000984207D2531E002A03D0CA5CC254013B2C
:100B3000FBD2F0BD0F2A0BD80500561E002AF8D0B4
:100B40000023CC5C1A00EC5401339642F9D1F0E753
:100B500003270D003E0005430C0003002E402F42EA
:100B60002BD11500103D2D09AC462F013F182568EB
:100B70001D6065685D60A5689D60E5681034DD6096
:100B80001D001033BD42F2D165460F230C24013500
:100B90002D01491913404519144211D08C59AC51FB
:100BA00004369C1B032CF9D8043B9B0801339B00A3
:100BB000ED18C91803231A40BFE70500561EBFE70A
:100BC0001A00BAE770B50500002915D00C1F23687C
:100BD000002B23DB280000F0F1F8294A1368002BD2
:100BE00005D0A3420BD92168601883422DD06360E1
:100BF0002800146000F0E4F870BDA34210D81A0079
:100C00005B68002BF9D1106811188C4219D030D3D1
:100C100063605460280000F0D3F8EDE7E418D9E7EA
:100C200011685018A04217D023D821686018834259
:100C3000EED118685B68844661442160636054604B
:100C4000E8E7236818181060E4E718685B688446D2
:100C5000614421606360CBE7206809185018116077
:100C60008342D7D118685B68844661441160536041
:100C7000D0E70C2328002B6000F0A2F8BCE7C046A8
:100C800084000020F8B50323CD1C9D4308350600E1
:100C90000C2D27D20C25A94226D8300000F08EF862
:100CA000284F3A68002A27D0140004E06368220025
:100CB000002B21D01C0023685B1BF7D40B2B17D80B
:100CC0006368944235D05360300000F079F820001A
:100CD00007220B30231D9043C21A984207D01B1ADB
:100CE000A35004E0002DD6DA0C2300203360F8BDB9
:100CF0002360E4182560E7E77B68002B1BD0290000
:100D0000300000F049F8431C0CD00323C41C9C4362
:100D1000A04205D0211A300000F03EF8431C01D05B
:100D20002560D1E70C233000336000F049F8002043
:100D3000DDE73B60C8E70021300000F02DF8786067
:100D4000DDE7C04684000020F8B506000C00150061
:100D500000291BD0002A15D000F034F82700A84243
:100D600001D33800F8BD29003000FFF78BFF071EC4
:100D7000F7D021002A00FFF77DFE21003000FFF7A9
:100D800021FFEEE7FFF71EFF0027EAE71100FFF75C
:100D900079FF0700E5E7C046002370B5064D040063
:100DA00008002B6000F08EF9431C00D070BD2B684A
:100DB000002BFBD02360F9E78C0000207047C04671
:100DC0007047C0460B1F1B68181F002B00DB7047C5
:100DD0000B58C018FBE7C046002243088B4274D36F
:100DE00003098B425FD3030A8B4244D3030B8B422C
:100DF00028D3030C8B420DD3FF22090212BA030C35
:100E00008B4202D31212090265D0030B8B4219D315
:100E100000E0090AC30B8B4201D3CB03C01A524135
:100E2000830B8B4201D38B03C01A5241430B8B427D
:100E300001D34B03C01A5241030B8B4201D30B0366
:100E4000C01A5241C30A8B4201D3CB02C01A52418D
:100E5000830A8B4201D38B02C01A5241430A8B4250
:100E600001D34B02C01A5241030A8B4201D30B0239
:100E7000C01A5241CDD2C3098B4201D3CB01C01A53
:100E8000524183098B4201D38B01C01A524143095D
:100E90008B4201D34B01C01A524103098B4201D34B
:100EA0000B01C01A5241C3088B4201D3CB00C01AB8
:100EB000524183088B4201D38B00C01A5241430830
:100EC0008B4201D34B00C01A5241411A00D2014655
:100ED000524110467047FFE701B5002000F0F0F8DE
:100EE00002BDC0460029F7D076E7704703460B43A2
:100EF0007FD4002243088B4274D303098B425FD313
:100F0000030A8B4244D3030B8B4228D3030C8B423E
:100F10000DD3FF22090212BA030C8B4202D3121224
:100F2000090265D0030B8B4219D300E0090AC30BF9
:100F30008B4201D3CB03C01A5241830B8B4201D3A6
:100F40008B03C01A5241430B8B4201D34B03C01A8F
:100F50005241030B8B4201D30B03C01A5241C30A07
:100F60008B4201D3CB02C01A5241830A8B4201D378
:100F70008B02C01A5241430A8B4201D34B02C01A62
:100F80005241030A8B4201D30B02C01A5241CDD207
:100F9000C3098B4201D3CB01C01A524183098B4252
:100FA00001D38B01C01A524143098B4201D34B013B
:100FB000C01A524103098B4201D30B01C01A52419E
:100FC000C3088B4201D3CB00C01A524183088B4225
:100FD00001D38B00C01A524143088B4201D34B000E
:100FE000C01A5241411A00D2014652411046704780
:100FF0005DE0CA0F00D04942031000D34042534085
:1010000000229C4603098B422DD3030A8B4212D344
:10101000FC22890112BA030A8B420CD38901921176
:101020008B4208D3890192118B4204D389013AD0B3
:10103000921100E08909C3098B4201D3CB01C01A88
:10104000524183098B4201D38B01C01A524143099B
:101050008B4201D34B01C01A524103098B4201D389
:101060000B01C01A5241C3088B4201D3CB00C01AF6
:10107000524183088B4201D38B00C01A5241D9D20E
:1010800043088B4201D34B00C01A5241411A00D28F
:101090000146634652415B10104601D34042002B8B
:1010A00000D54942704763465B1000D3404201B50A
:1010B000002000F005F802BD0029F8D016E77047BF
:1010C0007047C046044A03001068002802D0C318C5
:1010D000136070470148FAE7900000209800002054
:1010E00080B500AF084B5A69074B802189020A433B
:1010F0005A619023DB055A689023DB0501210A43DE
:101100005A60C046BD4680BD0010024080B582B026
:1011100000AF9023DB051B68032293431A00902342
:10112000DB0501210A431A609023DB055A699023ED
:10113000DB0501218A435A61F0235B00180000F0AF
:10114000F9FA9023DB051A689023DB0503218A4313
:101150001A60502000F0EEFA9023DB051B69DAB22A
:10116000FB1D01210A401A70FA235B00180000F0F1
:10117000E1FAFB1D1B781800BD4602B080BD80B5AA
:1011800084B000AF0200FB1D1A709023DB051B68C2
:10119000032293431A009023DB0501210A431A60BE
:1011A0000F23FB1800221A7052E0FB1D1B780F2240
:1011B000BA181278012191400A00511E8A41D2B218
:1011C000134021D09023DB051B68032293431A00B0
:1011D0009023DB0501210A431A609023DB055A693D
:1011E0009023DB0501218A435A61012000F0A2FA15
:1011F0009023DB051A689023DB0503218A431A60DC
:10120000322000F097FA1DE09023DB051B680322D3
:1012100093431A009023DB0501210A431A609023AF
:10122000DB055A699023DB0501218A435A6132208C
:1012300000F080FA9023DB051A689023DB05032178
:101240008A431A600F217B181A787B1801321A70B2
:101250000F23FB181B78072BA7D9C046C046BD46F5
:1012600004B080BD80B582B000AFFB1D00221A70B3
:101270009023DB051A689023DB0503218A431A605B
:10128000BB1D00221A7038E09023DB051B68032287
:1012900093431A009023DB0501210A431A6090232F
:1012A000DB055A699023DB0501218A435A6102203C
:1012B00000F040FA9023DB051A689023DB05032138
:1012C0008A431A609023DB051B69012213400CD06E
:1012D000BB1D1B7801229A4013005AB2FB1D1B78DC
:1012E0005BB213435AB2FB1D1A703C2000F022FA85
:1012F000BB1D1A78BB1D01321A70BB1D1B78072B52
:10130000C2D9FB1D1B781800BD4602B080BD00008D
:1013100090B583B000AFFFF7F9FE031E38D0CC20A4
:10132000FFF72DFF4420FFF72AFF1E4B180000F0A7
:10133000EBF9FFF7EBFECC20FFF721FFBE20FFF714
:101340001EFF7C1DFFF78EFF030023703C1DFFF77F
:1013500089FF030023707B1D1B78180000F090FAB2
:10136000114B180000F08CFA3B1D1B78180000F0A0
:1013700087FA0D4B180000F083FA3B1D1B781B0207
:1013800019B27B1D1B781AB2BB1D0A431A8002E0FA
:10139000BB1D00221A80BB1D00229B5E1800BD46AB
:1013A00003B090BDEE0200001419000880B500AF34
:1013B000294B5A69284B8021C9020A435A61264B9E
:1013C000DA69254B802189030A43DA61234B1A68C5
:1013D000224B23490A401A60204B1A681F4B802178
:1013E00089010A431A601D4B1A681C4B1D490A40AB
:1013F0001A601A4B1A68194B802109020A431A60B5
:10140000164B5A68154BC0210A435A60134B9A6811
:10141000124BA02109020A439A60104B1A6A0F4B23
:101420001202120A1A620D4B1A6A0C4B88214905E6
:101430000A431A620C4B00221A600B4B00225A60BE
:10144000094B0A4A1A61084B1A68074B01210A43E3
:101450001A60C046BD4680BD00100240000400482E
:10146000FFCFFFFFFF3FFFFF00540040130F42106C
:1014700080B500AF124B5A69114B802189020A4393
:101480005A610F4B5A690E4B8021C9020A435A61B7
:101490009023DB051A689023DB058021C9000A43ED
:1014A0001A60084B1A68074B0C218A431A60054BD7
:1014B000DA68044B04210A43DA60C046BD4680BDA9
:1014C000001002400004004880B58AB000AF00F070
:1014D00051F800F0EFF8FFF7CBFFFFF767FF962317
:1014E0009B01180000F03AF9FFF7FAFD9023DB05A5
:1014F0005A699023DB0520210A435A611A4B1800D0
:1015000000F0BEF92623FB1800221A80FFF7FEFD2B
:1015100003001A0015493B1D1800FEF75BFE3B1D3A
:10152000180000F0ADF9FA235B00180000F0ECF8A9
:10153000FFF7EEFE031E00DA0F331B111AB226214D
:101540007B181A807B181A8809493B1D1800FEF782
:1015500041FE3B1D180000F093F9FA235B001800D0
:1015600000F0D2F8D2E7C046181900082019000888
:101570003019000880B500AF124B1A68114B80215A
:1015800049020A431A60C0460E4B1A6880239B0228
:101590001340F9D00B4B5A680A4B03218A435A6017
:1015A000084B5A68074B01210A435A60C046054B55
:1015B0005B680C221340042BF9D1C046C046BD46DF
:1015C00080BDC0460010024080B584B000AF00234B
:1015D000FB600023BB6000237B6000233B60314B3A
:1015E0005B680C221340FB60FB68082B11D0FB6882
:1015F000082B41D8FB68002B03D0FB68042B04D0D8
:101600003AE0294B294A1A603AE0274B274A1A60E8
:1016100036E0244B5A68F0239B031340BB60214BF8
:101620005A6880235B0213407B60BB689B0C0233CB
:10163000BB601C4BDB6A0F22134001333B607A68AE
:1016400080235B029A420AD139681848FFF7C4FB2D
:1016500003001A00BB685A43134B1A6010E0B968C4
:101660000A005201521A93019B1ADB005B181B02FD
:101670001A000D4B1A6003E00B4B0C4A1A60C0466F
:10168000084B5B681B090F221340094AD35CFB60BF
:10169000054B1A68FB68DA40034B1A60C046BD462A
:1016A00004B080BD001002406400002000127A00E7
:1016B000C019000880B500AFFFF786FF0A4B1B6812
:1016C000FA2291001800FFF787FB03001A00074B6E
:1016D000013A5A60054B00229A60044B07221A60B7
:1016E000C046BD4680BDC0466400002010E000E05A
:1016F00080B500AF034B1B685A1C024B1A60C046F2
:10170000BD4680BD9400002080B584B000AF7860F5
:10171000074B1B68FB60C046054B1A68FB68D31A71
:101720007A689A42F8D8C046C046BD4604B080BD2B
:101730009400002080B582B000AF78607B68DB0049
:101740007B6000E0C0467B685A1E7A60002BF9D1AE
:10175000C046C046BD4602B080BD000080B582B024
:1017600000AF0200BB1D1A80354B5A69344B8021F3
:1017700089020A435A61324B9A69314B8021C9016F
:101780000A439A619023DB051A689023DB05302118
:101790008A431A609023DB051A689023DB05202119
:1017A0000A431A609023DB051A689023DB05C021E9
:1017B0008A431A609023DB051A689023DB05802199
:1017C0000A431A609023DB055A689023DB050C213D
:1017D0008A435A609023DB059A689023DB05A02199
:1017E0000A439A609023DB051A6A9023DB051549AA
:1017F0000A401A629023DB051A6A9023DB058821D0
:1018000049010A431A62104B00221A600E4B002253
:101810005A600D4B00229A60BB1D1B8819000B48B3
:10182000FFF764FB03001A00074BDA60064B1A68E7
:10183000054B0D210A431A60C046BD4602B080BD6B
:1018400000100240FF00FFFF0038014000127A0044
:1018500080B582B000AF0200FB1D1A70C046074B76
:10186000DB6980221340FAD0044AFB1D1B789BB22F
:101870001385C046BD4602B080BDC0460038014059
:1018800080B582B000AF786006E07B685A1C7A6051
:101890001B781800FFF7DCFF7B681B78002BF4D166
:1018A000C046C046BD4602B080BD00000C4885461B
:1018B0000C480D490D4A002302E0D458C4500433AB
:1018C000C4188C42F9D30A4A0A4C002301E0136081
:1018D0000432A242FBD3FEF73FFCFFF7F5FDFEE723
:1018E000001000200000002068000020141A0008EA
:1018F0006800002098000020FEE70000F8B5C04610
:10190000F8BC08BC9E467047F8B5C046F8BC08BC99
:041910009E46704738
:101914000D0A00005541525420454E00535243488D
:10192400203D202575200A0D000000004453203D71
:10193400202575200A0D00003E0900084208000811
:10194400420800084208000842080008420800084B
:10195400420800084208000842080008420800083B
:10196400420800089E0800085608000842080008BB
:101974004208000842080008420800085608000807
:10198400420800084208000842080008420800080B
:10199400B20700087A080008D408000842080008C2
:1019A40042080008B4080008420800087A08000841
:1019B4004208000842080008580900080000000016
:1019C400000000000102030406070809232D302B40
:1019D40020000000686C4C006566674546470000BF
:1019E4003031323334353637383941424344454651
:1019F4000000000030313233343536373839616213
:081A0400636465660000000048
:041A0C003501000898
:041A100009010008C0
:101A1400040000200000000000000000000000009E
:101A240000000000000000000000000000000000B2
:101A340000000000000000000000000000000000A2
:101A44000000000000000000000000000000000092
:101A54000000000000000000000000000000000082
:101A64000000000000000000000000000000000072
:081A74000000000000127A00DE
:04000005080018AD2A
:00000001FF
