:020000040800F2
:10000000001000207D0F0008C90F0008C90F00086C
:1000100000000000000000000000000000000000E0
:10002000000000000000000000000000C90F0008F0
:100030000000000000000000C90F0008510800087F
:10004000C90F000800000000C90F0008C90F000810
:10005000C90F0008C90F0008C90F0008C90F000820
:1000600000000000C90F0008C90F0008C90F0008F0
:10007000C90F0008C90F0008C90F000800000000E0
:10008000C90F00080000000000000000C90F0008B0
:1000900000000000C90F0008C90F0008C90F0008C0
:1000A00000000000C90F000800000000C90F000890
:1000B0000000000000000000000000000000000040
:1000C00003B47146490840004900095E49008E4466
:1000D00003BC7047002243088B4274D303098B4250
:1000E0005FD3030A8B4244D3030B8B4228D3030C08
:1000F0008B420DD3FF22090212BA030C8B4202D3AA
:100100001212090265D0030B8B4219D300E0090AD1
:10011000C30B8B4201D3CB03C01A5241830B8B42DA
:1001200001D38B03C01A5241430B8B4201D34B03C3
:10013000C01A5241030B8B4201D30B03C01A524128
:10014000C30A8B4201D3CB02C01A5241830A8B42AD
:1001500001D38B02C01A5241430A8B4201D34B0296
:10016000C01A5241030A8B4201D30B02C01A5241FA
:10017000CDD2C3098B4201D3CB01C01A52418309AE
:100180008B4201D38B01C01A524143098B4201D3E8
:100190004B01C01A524103098B4201D30B01C01A13
:1001A0005241C3088B4201D3CB00C01A524183088D
:1001B0008B4201D38B00C01A524143088B4201D3BA
:1001C0004B00C01A5241411A00D20146524110461A
:1001D0007047FFE701B5002000F0F0F802BDC0460F
:1001E0000029F7D076E7704703460B437FD40022FF
:1001F00043088B4274D303098B425FD3030A8B42BB
:1002000044D3030B8B4228D3030C8B420DD3FF2224
:10021000090212BA030C8B4202D31212090265D0F2
:10022000030B8B4219D300E0090AC30B8B4201D3A5
:10023000CB03C01A5241830B8B4201D38B03C01AEC
:100240005241430B8B4201D34B03C01A5241030B63
:100250008B4201D30B03C01A5241C30A8B4201D314
:10026000CB02C01A5241830A8B4201D38B02C01ABF
:100270005241430A8B4201D34B02C01A5241030A36
:100280008B4201D30B02C01A5241CDD2C3098B421B
:1002900001D3CB01C01A524183098B4201D38B0198
:1002A000C01A524143098B4201D34B01C01A52413B
:1002B00003098B4201D30B01C01A5241C3088B4280
:1002C00001D3CB00C01A524183088B4201D38B006B
:1002D000C01A524143088B4201D34B00C01A52410D
:1002E000411A00D201465241104670475DE0CA0FE4
:1002F00000D04942031000D34042534000229C46A4
:1003000003098B422DD3030A8B4212D3FC228901AD
:1003100012BA030A8B420CD3890192118B4208D383
:10032000890192118B4204D389013AD0921100E0E5
:100330008909C3098B4201D3CB01C01A52418309F9
:100340008B4201D38B01C01A524143098B4201D326
:100350004B01C01A524103098B4201D30B01C01A51
:100360005241C3088B4201D3CB00C01A52418308CB
:100370008B4201D38B00C01A5241D9D243088B4221
:1003800001D34B00C01A5241411A00D201466346C4
:1003900052415B10104601D34042002B00D5494228
:1003A000704763465B1000D3404201B5002000F067
:1003B00005F802BD0029F8D016E770477047C0461F
:1003C0000448054B10B5834203D0044B002B00D0EA
:1003D000984710BD54000020540000200000000089
:1003E00006480749091A8B10C90FC91810B54910DA
:1003F00003D0044B002B00D0984710BD54000020C0
:10040000540000200000000010B5074C2378002B9A
:1004100009D1FFF7D5FF054B002B02D0044800E0BF
:1004200000BF0123237010BD540000200000000015
:1004300004190008054B10B5002B03D004490548EA
:1004400000E000BFFFF7CCFF10BDC0460000000079
:10045000580000200419000880B500AF294B5A69E4
:10046000284B8021C9020A435A61264BDA69254B81
:10047000802189030A43DA61234B1A68224B2349FE
:100480000A401A60204B1A681F4B802189010A43D9
:100490001A601D4B1A681C4B1D490A401A601A4B02
:1004A0001A68194B802109020A431A60164B5A68D0
:1004B000154BC0210A435A60134B9A68124BA02176
:1004C00009020A439A60104B1A6A0F4B1202120A71
:1004D0001A620D4B1A6A0C4B882149050A431A62AD
:1004E0000C4B00221A600B4B00225A60094B0A4A3F
:1004F0001A61084B1A68074B01210A431A60C0466B
:10050000BD4680BD0010024000040048FFCFFFFF41
:10051000FF3FFFFF00540040130F421080B586B02C
:1005200000AFF860B9607A60234B00225A60224B1A
:1005300059687B681A04204B0A435A601E4B5A685C
:100540001D4B802189040A435A601B4B5968FB6884
:100550005A00194B0A435A60174B5A68164B8021B0
:1005600089010A435A60C046134B9B69022213401B
:10057000FAD000237B610EE0C0460F4B9B6902223C
:100580001340FAD07B69BA68D3181A780A4B9A627A
:100590007B6901337B617A697B689A42ECDBC046F8
:1005A000054B9B6920221340FAD0034B2022DA61CD
:1005B000C046BD4606B080BD0054004080B586B040
:1005C00000AFF860B9607A60244B00225A60234B78
:1005D0005A68224B8021C9000A435A601F4B596850
:1005E0007B681A041D4B0A435A601C4B5A681B4B0C
:1005F000802189040A435A60184B5968FB685A00E5
:10060000164B0A435A60154B5A68144B80218901D6
:100610000A435A6000237B610FE0C0460F4B9B6981
:1006200004221340FAD00D4B596A7B69BA68D3187B
:10063000CAB21A707B6901337B617A697B689A421E
:10064000EBDBC046054B9B6920221340FAD0034BDD
:100650002022DA61C046BD4606B080BD005400408D
:1006600080B582B000AF78602D4BCC229200DA6169
:100670002B4B00225A602A4A294B52685A60284B59
:100680005A68274B802189040A435A60244B5968D1
:100690007B685A00224B0A435A60214B5A68204B10
:1006A000802189010A435A601E4BFA2292001A6087
:1006B0000AE01C4B1B685A1E1A4B1A60194B1B6828
:1006C000002B01D1002327E0154B9B6970221340BA
:1006D000EFD0134B9B691022134004D0104B3022F3
:1006E000DA61002318E00F4BFA2292001A6008E04A
:1006F0000C4B1B685A1E0B4B1A600A4B1B68002BD5
:1007000005D0074B9B6920221340F1D000E0C04682
:10071000034B2022DA6101231800BD4602B080BDE0
:10072000005400407000002080B584B000AF00236A
:10073000FB600023BB6000237B6000233B60314BE8
:100740005B680C221340FB60FB68082B11D0FB6830
:10075000082B41D8FB68002B03D0FB68042B04D086
:100760003AE0294B294A1A603AE0274B274A1A6097
:1007700036E0244B5A68F0239B031340BB60214BA7
:100780005A6880235B0213407B60BB689B0C02337A
:10079000BB601C4BDB6A0F22134001333B607A685D
:1007A00080235B029A420AD139681848FFF792FC0D
:1007B00003001A00BB685A43134B1A6010E0B96873
:1007C0000A005201521A93019B1ADB005B181B02AC
:1007D0001A000D4B1A6003E00B4B0C4A1A60C0461E
:1007E000084B5B681B090F221340094AD35CFB606E
:1007F000054B1A68FB68DA40034B1A60C046BD46D9
:1008000004B080BD001002400000002000127A00F9
:100810007C19000880B500AFFFF786FF0A4B1B6804
:10082000FA2291001800FFF755FC03001A00074B4D
:10083000013A5A60054B00229A60044B07221A6065
:10084000C046BD4680BDC0460000002010E000E06C
:1008500080B500AF034B1B685A1C024B1A60C046A0
:10086000BD4680BD7400002080B584B000AF7860C4
:10087000074B1B68FB60C046054B1A68FB68D31A20
:100880007A689A42F8D8C046C046BD4604B080BDDA
:100890007400002080B582B000AF786000E0C046F0
:1008A0007B685A1E7A60002BF9D1C046C046BD460F
:1008B00002B080BD80B582B000AF0200BB1D1A80BF
:1008C000354B5A69344B802189020A435A61324BB5
:1008D0009A69314B8021C9010A439A619023DB0553
:1008E0001A689023DB0530218A431A609023DB05C8
:1008F0001A689023DB0520210A431A609023DB0548
:100900001A689023DB05C0218A431A609023DB0517
:100910001A689023DB0580210A431A609023DB05C7
:100920005A689023DB050C218A435A609023DB052B
:100930009A689023DB05A0210A439A609023DB0587
:100940001A6A9023DB0515490A401A629023DB05D9
:100950001A6A9023DB05882149010A431A62104B69
:1009600000221A600E4B00225A600D4B00229A6042
:10097000BB1D1B8819000B48FFF736FC03001A004B
:10098000074BDA60064B1A68054B0D210A431A60C3
:10099000C046BD4602B080BD00100240FF00FFFF10
:1009A0000038014000127A0080B582B000AF02002A
:1009B000FB1D1A70C046074BDB6980221340FAD03A
:1009C000044AFB1D1B789BB21385C046BD4602B08E
:1009D00080BDC0460038014080B582B000AF78606D
:1009E00006E07B685A1C7A601B781800FFF7DCFF72
:1009F0007B681B78002BF4D1C046C046BD4602B0D0
:100A000080BD000090B591B000AF2C23FB183B4A8D
:100A10001188198092789A702823FB18384A118817
:100A2000198092789A703820FFF71AFE031E04D0BE
:100A3000344B1800FFF7D0FF03E0334B1800FFF7EB
:100A4000CBFF2C23FB18032219003820FFF766FD8B
:100A50003220FFF709FF2823FB1803221900382052
:100A6000FFF75CFD6420FFF7FFFE20243B19062200
:100A700019003820FFF7A2FD21007B185B781A03CC
:100A80007B189B781B0213437A18D2781209D2B2D2
:100A90001343FB637B18DB781A04F0231B031A4013
:100AA0007B181B791B0213437A1852791343BB63DB
:100AB000FB6B642253431B0D7B63BB6BC822534308
:100AC0001B0D323B3B637A6B10493B00180000F072
:100AD0007DFA3B001800FFF77FFF3A6B0C493B00A3
:100AE000180000F073FA3B001800FFF775FF3B0099
:100AF00000221A70C046BD4611B090BD50190008C2
:100B0000541900081C190008281900083819000891
:100B10004419000880B500AF0C4B5A690B4B80217B
:100B200089020A435A619023DB055A689023DB054A
:100B300001210A435A609023DB059A689023DB0564
:100B400003210A439A60C046BD4680BD00100240A2
:100B500080B582B000AF9023DB051B68032293436E
:100B60001A009023DB0501210A431A609023DB055C
:100B70005A699023DB0501218A435A61F0235B0007
:100B80001800FFF787FE9023DB051A689023DB052A
:100B900003218A431A602820FFF77CFE9023DB059F
:100BA0001B690122134003D1BB1D01221A7002E010
:100BB000BB1D00221A70FA20FFF76CFE9023DB05A4
:100BC0001B6901221340012B03D17B1D01221A70E6
:100BD00002E07B1D00221A70BB1D1B78013B5A42AC
:100BE0005341DBB27A1D1278013A51424A41D2B2E6
:100BF0001340DBB2002B03D0FB1D01221A7002E070
:100C0000FB1D00221A70FB1D1B781800BD4602B0A8
:100C100080BD80B584B000AF0200FB1D1A70902328
:100C2000DB051B68032293431A009023DB05012197
:100C30000A431A600F23FB1800221A7050E0FB1DB4
:100C40001A780F23FB181B781A4113000122134056
:100C500022D09023DB051B68032293431A009023C4
:100C6000DB0501210A431A609023DB055A699023B2
:100C7000DB0501218A435A61C046C046C046C046D2
:100C80009023DB051A689023DB0503218A431A6051
:100C90002820FFF7FFFD1DE09023DB051B680322E2
:100CA00093431A009023DB0501210A431A60902325
:100CB000DB055A699023DB0501218A435A61322002
:100CC000FFF7E8FD9023DB051A689023DB0503217D
:100CD0008A431A600F217B181A787B1801321A7028
:100CE0000F23FB181B78072BA9D9C046C046BD4669
:100CF00004B080BD80B582B000AFFB1D00221A7029
:100D00009023DB051A689023DB0503218A431A60D0
:100D1000BB1D00221A7041E09023DB051B680322F3
:100D200093431A009023DB0501210A431A609023A4
:100D3000DB055A699023DB0501218A435A61C046CD
:100D4000C046C046C0469023DB051A689023DB05E9
:100D500003218A431A600A20FFF79CFD9023DB05DC
:100D60001B6901221340012B10D1BB1D1B780122EE
:100D70009A4013005AB2FB1D1B785BB213435AB260
:100D8000FB1D1A701920FFF785FD02E02820FFF7F0
:100D900081FDBB1D1A78BB1D01321A70BB1D1B786B
:100DA000072BB9D9FB1D1B781800BD4602B080BDCA
:100DB00090B583B000AFFFF7CBFE031E27D0CC2049
:100DC000FFF727FF4420FFF724FF164B1800FFF71B
:100DD0004BFDFFF7BDFECC20FFF71BFFBE20FFF74A
:100DE00018FF7C1DFFF786FF030023703C1DFFF7F3
:100DF00081FF030023703B1D1B781BB21B0219B23D
:100E00007B1D1B781AB2BB1D0A431A8002E0BB1D72
:100E100000221A80BB1D00229B5E1800BD4603B055
:100E200090BDC046EE02000080B500AF194B5A6974
:100E3000184B802189020A435A61164B5A69154B97
:100E40008021C9020A435A619023DB051A68902366
:100E5000DB058021C9000A431A600F4B1A680E4B4C
:100E60000C218A431A600C4BDA680B4B04210A43AD
:100E7000DA60094B1A68084B802149010A431A605D
:100E8000054B1A68044B8021C9010A431A60C04609
:100E9000BD4680BD001002400004004880B588B007
:100EA00000AF00F047F8FFF7B5FCFFF7D5FA96233F
:100EB0009B011800FFF7FEFCFFF7B6FFFFF72AFEC5
:100EC000194B1800FFF788FDFFF79CFDFA235B0024
:100ED0001800FFF7C9FCFFF73BFE03001A00134997
:100EE0003B00180000F072F83B001800FFF774FD9B
:100EF0000A20FFF7B9FCFFF75BFF031E00DA0F3390
:100F00001B111BB21A000A493B00180000F05EF8E2
:100F10003B001800FFF760FDFA235B001800FFF7A5
:100F2000A3FCC046D0E7C046581900086019000865
:100F30007019000880B500AF0F4B1A680E4B0121E5
:100F40000A431A60C0460C4B1B6802221340FAD0B9
:100F5000094B5A68084B03218A435A60064A064BDC
:100F600052685A60C046044B5B680C221340FAD1A9
:100F7000C046C046BD4680BD001002400C488546B4
:100F80000C480D490D4A002302E0D458C4500433E4
:100F9000C4188C42F9D30A4A0A4C002301E01360BA
:100FA0000432A242FBD300F033F8FFF777FFFEE7ED
:100FB000001000200000002054000020C819000884
:100FC00054000020C4010020FEE700000EB410B55C
:100FD00000249DB0029006900A481FAB0790049031
:100FE000094804CB0590094802A9006801934C66A2
:100FF00000F094F9029B1C701DB010BC08BC03B03B
:101000001847C046FFFFFF7F0802FFFF04000020D3
:1010100070B500260C4C0D4D641BA410A64209D1DE
:10102000002600F06FFC0A4C0A4D641BA410A64277
:1010300005D170BDB300EB5898470136EEE7B30019
:10104000EB5898470136F2E7C0190008C0190008AC
:10105000C4190008C01900087047704770B5050032
:101060000C1E10D0043C2368002B00DAE418280082
:1010700000F0E0F81D4A1368002B05D1636014608E
:10108000280000F0DFF870BDA34208D920682118BD
:101090008B42F3D119685B6809182160EEE71A00EA
:1010A0005B68002B01D0A342F9D911685018A04207
:1010B0000BD120680918501811608342E0D11868DC
:1010C0005B68411811605360DAE7A04202D90C2333
:1010D0002B60D5E7206821188B4203D119685B6823
:1010E0000918216063605460CAE7C046BC01002053
:1010F00070B50F4E0D0031680400002902D100F0D8
:1011000095FB30602900200000F090FB431C03D1C8
:1011100001256D42280070BD0323C51C9D43A842D4
:10112000F8D0291A200000F081FB0130F2D1EFE75E
:10113000B8010020F7B50322CB1C93430833050008
:101140001F000C2B34D20C27B94233D8280000F0F2
:1011500071F8374E33681C00002C2FD1390028005D
:10116000FFF7C6FF0400431C5FD134680094009B66
:10117000002B4AD1002C52D023682800E318009994
:10118000019300F053FB019B834248D12368280060
:10119000FF1A3900FFF7ACFF013040D02368DB199C
:1011A000236033685A68002A33D1009B336019E00A
:1011B000002BC9DA0C232B600020FEBD2168C91B5F
:1011C00020D40B290AD9E2192760A34204D1326046
:1011D00063681160536005E05A60F9E76268A342F2
:1011E0000ED13260280000F02DF8200007220B30CD
:1011F000231D9043C21A9842DFD01B1AA350DCE78C
:101200005A60EFE723006468A6E7009C63680093D8
:10121000ADE71A005B68A342FBD10023DAE70C2399
:1012200028002B6000F00EF8C6E70760DAE7C0463A
:10123000BC01002010B50248FFF70EFF10BDC046EC
:10124000B401002010B50248FFF707FF10BDC046EB
:10125000B4010020F0B58E6885B01F000C0033008B
:1012600002900392BE4254D80C22885E9022D20093
:1012700010422CD00322096923685B1A0193636929
:101280005343019ADD0FED187B1C6D109B182A004B
:10129000AB4201D91D001A00400527D51100029864
:1012A000FFF748FF061E2AD0019A216900F0DBFAF9
:1012B000A289194B1A4080231343A381019B266105
:1012C000F618266065613E00ED1A3B00A5601F0020
:1012D0003A000399206800F097FA0020A3689B1B4E
:1012E000A3602368DB19236005B0F0BD029800F00D
:1012F000C3FA061EE2D121690298FFF7AFFE0C2364
:101300000120029A40421360A28934331343A3811F
:10131000EAE73E00DCE7C0467FFBFFFFF0B59FB089
:1013200002901D008B890F0016001B0612D50B6959
:10133000002B0FD14021FFF7FDFE386038610028F7
:1013400006D10C23029A1360012040421FB0F0BD69
:1013500040237B61002306AC636120336376103346
:10136000A376059535002B78002B01D0252B48D18D
:10137000AB1B0393B5420BD0320039000298FFF744
:1013800069FF013000D1AAE06369039A9B18636189
:101390002B78002B00D1A2E00122532100235242DE
:1013A000626002AA52186E1C2360E360A36013708F
:1013B000A365524B052218003178039300F048FAD8
:1013C000751C226800281ED1D30604D5202302A94B
:1013D000533009180B70130704D553202B2302A98F
:1013E00009180B7033782A2B15D0350000210A20FC
:1013F000E3682A786E1C303A092A4ED9002910D1A8
:1014000016E00135AFE7039B2E00C01A012383408D
:1014100013432360CDE7059B191D1B680591002B25
:1014200001DBE36004E05B42E360022313432360DB
:101430002B782E2B0CD16B782A2B33D1059B0235C0
:101440001A1D1B680592002B01DA01235B426360C1
:101450002B4E03223000297800F0FAF9002806D03C
:101460004023801B83402268013513432360297881
:10147000062224486E1C217600F0EAF9002834D0B8
:101480002148002821D10722059B073393430833C5
:10149000059363691B18636164E7434335000121C9
:1014A0009B18A6E700230A201900013563602A78FB
:1014B0006E1C303A092A03D9002BC9D06160C7E7F6
:1014C0004143350001238918F1E705AA0092210064
:1014D0003A000E4B029800E000BF431CD9D1BB89F3
:1014E0005B0600D530E7606930E705AA009221006D
:1014F0003A00064B029800F07BF8EEE78C190008E2
:101500009219000896190008000000005512000802
:10151000F7B5160001938A680B690C00009093429E
:1015200000DA13002200336043321278002A01D01F
:101530000133336023689B0602D53368023333607E
:101540002268062315001D401A4227D0230043338A
:101550001B785A1E93412268920630D422000199CA
:101560000098089D4332A847013025D00622236801
:1015700000251340042B05D13368E568ED1AEB43D1
:10158000DB171D40A3682269934201DD9B1AED1809
:101590000026B54220D1002010E00135E368326812
:1015A0009B1AAB42D2DD2200012301990098089FCB
:1015B0001932B8470130F0D101204042FEBD302041
:1015C000E1184331087021005A1C45310978A218EE
:1015D000433202331170C1E72200012301990098C0
:1015E000089F1A32B8470130E6D00136D1E7000033
:1015F000F0B58BB006920A00433207930590039230
:101600000A7E0C00109B782A09D8622A0BD8002A7F
:1016100000D1BBE07A490491582A00D18FE025001F
:1016200042352A7022E0100063381528F7D8FEF7FB
:1016300047FD16001F00F6FFF6FFF6FFF6FF1F003E
:10164000F6FFF6FFF6FFF6FFA00036007F00F6FF7C
:10165000F6FFB100F6FF3600F6FFF6FF8300250027
:101660001A684235111D196013682B7001239FE021
:1016700018680968021D0D060BD506681A60002E51
:1016800003DA2D23039A764213705D4B0A270493E5
:1016900019E006681A604906F1D536B2EFE71A6814
:1016A000096840CA080602D4490600D5B6B21A60D5
:1016B000237E534A0A2704926F2B00D1023F230056
:1016C000002243331A706368A360002B06DB0421F9
:1016D0002268039D8A43226033430CD0039D30006F
:1016E0003900FEF77DFD049B013D5B5C2B703300F0
:1016F00006009F42F3D9082F09D12368DB0706D5DE
:10170000626823699A4202DC3023013D2B70039BFF
:101710005B1B2361079B210000930598069B09AA88
:10172000FFF7F6FE013048D1012040420BB0F0BD7A
:10173000202209680A43226078223249049121005C
:1017400045310A701968226840C9100602D4500653
:1017500000D5B6B21960D30702D520231343236006
:10176000002E01D01027AAE720222368934323608C
:10177000F8E71A680D68101D4969186013682E068D
:1017800001D5196002E06D06FBD519800023039D89
:101790002361BFE71A68111D196015680021280030
:1017A000626800F055F8002801D0401B6060636853
:1017B00023610023039A1370ACE72A00236906997A
:1017C0000598079DA8470130AED023689B0715D424
:1017D000099BE0689842A9DA1800A7E722000123D4
:1017E00006990598079E1932B04701309CD0013503
:1017F000E368099A9B1AAB42F0DCE9E70025F7E7BA
:101800009D190008AE19000810B5884202D98B183E
:10181000984208D300239A4207D0CC5CC4540133C9
:10182000F9E78B5C8354013AFBD210BD002370B5FD
:10183000064D040008002B6000F056F8431C03D14D
:101840002B68002B00D0236070BDC046B001002083
:10185000C9B28218904201D10020704703788B42B0
:10186000FBD00130F6E7002310B59A4200D110BD3D
:10187000CC5CC4540133F8E7F7B506000C00150042
:10188000002905D11100FFF755FC04002000FEBD22
:10189000002A03D1FFF7E2FB2C00F7E700F01CF869
:1018A0000700854202D84308AB42EFD3290030003D
:1018B000FFF740FC0190002801D1019CE6E72A00D7
:1018C000BD4200D93A0021000198FFF7CCFF21006A
:1018D0003000FFF7C3FBF0E70B1F1B68181F002B3E
:1018E00001DA0B58C0187047044A0300106800283A
:1018F00002D0C318136070470148FAE7C001002006
:10190000C8010020F8B5C046F8BC08BC9E46704728
:0C191000F8B5C046F8BC08BC9E46704705
:10191C0041485420454E0A0D000000004932432036
:10192C006E6F6E6520307833380A0D0048203D20EC
:10193C00256C75200A0D000054203D20256C752067
:10194C000A0D0000BE080000AC3300005541525493
:10195C0020454E0053524348203D202575200A0D4A
:10196C00000000004453203D202575200A0D000086
:10197C000000000000000000010203040607080933
:10198C00232D302B2000686C4C006566674546475C
:10199C0000303132333435363738394142434445DF
:1019AC00460030313233343536373839616263644E
:0419BC00656600005C
:0419C00035040008E2
:0419C400090400080A
:1019C80000127A00080000200000000078000020C3
:1019D800E000002048010020000000000000000096
:1019E80000000000000000000000000000000000EF
:1019F80000000000000000000000000000000000DF
:101A080000000000000000000000000000000000CE
:041A180000000000CA
:0400000508000F7D63
:00000001FF
